:020000040800F2
:100000002061002031030008F12100089D1C000838
:10001000FD1E0008990C000865360008000000006D
:10002000000000000000000000000000790200084D
:10003000D10C000800000000CD020008152D0008BA
:100040004B0300084B0300084B0300084B03000858
:100050004B0300084B0300084B0300084B03000848
:100060004B0300084B0300084B0300084B03000838
:100070004B0300084B0300084B0300084B03000828
:100080004B0300084B0300084B0300084B03000818
:100090004B0300084B0300084B0300084B03000808
:1000A0004B0300084B0300084B0300084B030008F8
:1000B000E92D0008F92D00080D2E00084B0300085B
:1000C0004B0300084B0300084B0300084B030008D8
:1000D0004B0300087D3200089D3200084B030008E6
:1000E0004B0300084B0300084B0300084B030008B8
:1000F0004B0300084B0300084B0300084B030008A8
:100100004B0300084B030008212E00084B03000896
:100110004B0300084B0300084B0300084B03000887
:100120004B0300084B0300084B0300084B03000877
:100130004B0300084B0300084B0300084B03000867
:100140004B0300084B0300084B0300084B03000857
:100150004B0300084B0300084B0300084B03000847
:100160004B0300084B0300084B0300084B03000837
:100170004B0300084B0300084B0300084B03000827
:100180004B0300084B03000800F002F800F064F88D
:100190000AA090E8000C82448344AAF10107DA45E2
:1001A00001D100F059F8AFF2090EBAE80F0013F0D0
:1001B000010F18BFFB1A43F001031847BCA0000051
:1001C000DCA000000A444FF0000C10F8013B13F0D3
:1001D000070408BF10F8014B1D1108BF10F8015BA0
:1001E000641E05D010F8016B641E01F8016BF9D193
:1001F00013F0080F1EBF10F8014BAD1C0C1B09D1EA
:100200006D1E58BF01F801CBFAD505E014F8016B5B
:1002100001F8016B6D1EF9D59142D6D370470000ED
:100220000023002400250026103A28BF78C1FBD8FF
:10023000520728BF30C148BF0B607047642900F0E7
:100240000381732900F03E82002070471FB508F03B
:1002500062FC1FBD10B510BD00F0B0FA1146FFF7EB
:10026000F5FF04F0CDFE00F0CEFA03B4FFF7F2FF85
:1002700003BC04F055FD00002A4B19680868B0E87B
:10028000F04F80F30988BFF36F8F4FF0000080F3C9
:10029000118870470000000006480068006880F37D
:1002A000088862B661B6BFF34F8FBFF36F8F00DF70
:1002B00000BF00BF08ED00E0DFF80C00016841F46A
:1002C00070010160704700BF88ED00E0EFF3098026
:1002D000BFF36F8F134B1A681EF0100F08BF20ED8D
:1002E000108A20E9F04F106008B44FF0500080F3FE
:1002F0001188BFF34F8FBFF36F8F06F08DFF4FF064
:10030000000080F3118808BC19680868B0E8F04F55
:100310001EF0100F08BFB0EC108A80F30988BFF3FD
:100320006F8F704790000020EFF30580704700004A
:100330000948804709480047FEE7FEE7FEE7FEE779
:10034000FEE7FEE7FEE7FEE7FEE7FEE704480549B5
:10035000054A064B70470000292D00088901000856
:10036000205B002020610020205D0020205D002017
:10037000704700000FB4044910B503AA029800F0BA
:10038000A5F910BC5DF814FB7C0000202DE9F041BC
:100390000E460446002020622046E168884730B3BC
:1003A000252805D0D4E901219047206A401CF2E7B6
:1003B000E168204600278847050018D0A5F14100D4
:1003C000192802D820354FF40067324629462046C6
:1003D0002760FFF733FF40B1012804D0F61D26F057
:1003E00007060836D8E7361DD6E72846DAE7206A3A
:1003F000BDE8F08170B50C460546012A05D0287885
:10040000800600D5EA69002302E0012305E05B1CB9
:10041000934202D2E05C0028F9D1A869E618C01A1C
:10042000A861286A184428622846AFF3008004E0D7
:10043000D5E9012114F8010B9047B442F8D32846BE
:10044000AFF3008070BD00002DE9F04106460024A6
:1004500010687529314616A510D0AFF3008000282A
:1004600002DA404213A507E031688A0701D512A5D8
:1004700002E0490704D511A5012401E0AFF3008093
:1004800000210A2206F1240709E0B0FBF2FCB0FBD0
:10049000F2F302FB1C00303078541846491C002847
:1004A000F3D123462A463046BDE8F04100F086B835
:1004B000000000002D0000002B00000020000000C4
:1004C000032A40F2308010F0030C00F0158011F880
:1004D000013BBCF1020F624498BF11F801CB00F858
:1004E000013B38BF11F8013BA2F1040298BF00F8AC
:1004F00001CB38BF00F8013B11F0030300F0F88096
:10050000083AC0F0088051F8043B083A51F804CB8F
:10051000A0E80810F5E7121D5CBF51F8043B40F855
:10052000043BAFF30080D20724BF11F8013B11F860
:1005300001CB48BF11F8012B24BF00F8013B00F8A4
:1005400001CB48BF00F8012B704702F0FF0343EADC
:10055000032242EA024200F002B84FF000020429EE
:10056000C0F0128010F0030C00F0F680CCF1040C07
:10057000BCF1020F18BF00F8012BA8BF20F8022B16
:10058000A1EB0C0100F0E8B85FEAC17C24BF00F8E1
:10059000012B00F8012B48BF00F8012B7047704772
:1005A00070477047704710B500F0FCF8006810BD48
:1005B00010B5044600F0F6F8046010BD2DE9F047D0
:1005C0000D4699469246044600F1240801688806C3
:1005D00004D5E06921F01001216000E00120A8426B
:1005E00001DD471B00E00027A1697A1902EB090031
:1005F000081AA0612078C00602D42046AFF300801C
:10060000002608E0D4E901211AF806009047206A84
:10061000401C761C20624E45F4DB2078C0060AD5CB
:100620002046AFF3008006E0D4E901213020904756
:10063000206A401C2062381EA7F10107F4DC07E0A5
:10064000D4E9012118F805009047206A401C206277
:10065000281EA5F10105F3DC2046AFF300802078C9
:10066000000602D50220BDE8F0870120FBE700006C
:1006700001694A1C02610878704700B58FB0CDE966
:1006800001310021059105497944CDE90310114656
:100690006846FFF77BFE0FB000BD0000E5FFFFFFDF
:1006A00010B5436913B1AFF3008001E0FFF7A2FE7C
:1006B000012010BD127800F124010A7000224A7056
:1006C0000122EDE711684FF0FF32E9E7074B70B503
:1006D0000D467B44FFF7D1FF0446284600F066F83C
:1006E00010B14FF0FF3070BD204670BDD7480000FC
:1006F00010B5203AC0F00B80B1E81850203AA0E8BD
:100700001850B1E81850A0E81850BFF4F5AF5FEAF0
:10071000027C24BFB1E81850A0E8185044BF18C9A3
:1007200018C0BDE810405FEA827C24BF51F8043B4A
:1007300040F8043B08BF7047D20728BF31F8023B9E
:1007400048BF11F8012B28BF20F8023B48BF00F832
:10075000012B70474FF0000200B5134694469646B1
:10076000203922BFA0E80C50A0E80C50B1F12001C4
:10077000BFF4F7AF090728BFA0E80C5048BF0CC072
:100780005DF804EB890028BF40F8042B08BF7047D0
:1007900048BF20F8022B11F0804F18BF00F8012B42
:1007A0007047000000487047BC5A0020007B00F0F2
:1007B0008000704700487047BC5A00207546FFF71C
:1007C000F9FFAE4605006946534620F0070085460E
:1007D00018B020B5FFF7BAFDBDE820404FF0000685
:1007E0004FF000074FF000084FF0000B21F0070119
:1007F000AC46ACE8C009ACE8C009ACE8C009ACE85C
:10080000C0098D46704710B50446AFF300802046FE
:10081000BDE81040FFF729BD0029816802D041F0F2
:10082000010101E021F0010181607047084B10B522
:10083000D3F8042307490A40D0E900142143D0E942
:100840000240044321431143C3F8041310BD0000C8
:1008500000200140E030FCFF10B501210C022046D1
:1008600001F01EFF2046BDE81040002101F018BF36
:10087000C06C80B270470246002012680A4200D065
:100880000120704730B542680F4B0C791A400B6855
:1008900042EA04221343436082680C4B4D791A40AC
:1008A000D1E9034323438C6844EA450423431343BB
:1008B0008360C26A097D22F47002491EC9B242EA0D
:1008C0000151C16230BD0000FFFEFFFCFDF7FFC01B
:1008D00070B5072609290AD9C568A1F10A0404EBF5
:1008E0004404A640B543A3401D43C56007E0056925
:1008F00001EB4104A640B543A3401D4305611F23FE
:10090000072A09D2446B521E02EB820293409C4399
:1009100091400C43446370BD0D2A09D2046BD21F71
:1009200002EB820293409C4391400C43046370BDF0
:10093000C46A0D3A02EB820293409C4391400C43FF
:10094000C46270BD816841F08041816070470000E1
:1009500010B526490878C0B10020254C08702078D1
:10096000012841D12348007888B1234890ED000A3E
:100970002248BDEEC00A10EE103A90ED000A204861
:10098000BDEEC00A10EE102A23E00120E5E71D4865
:10099000007878B11C4890ED000A1C48BDEEC00AF2
:1009A00010EE103A90ED000A1948BDEEC00A10EEA4
:1009B000102A0EE0174890ED000A1748BDEEC00A55
:1009C00010EE103A90ED000A1448BDEEC00A10EE89
:1009D000102A90ED000A12A0BDEEC00A10EE101A07
:1009E000FFF7C8FC0020207010BD0000A00100200F
:1009F00043010020150100205C0100205801002067
:100A00004C0100201401002054010020500100205E
:100A100048010020100100200C01002008010020E6
:100A20007B4325643A25643A25647D240000000058
:100A30002DE9F0418CB00121062001F001FE4FF4B8
:100A400080780121404601F01FFE03251D4F01263D
:100A50008DF81C50002406968DF81F4006A93846D4
:100A600000F0B4FD022006908DF81C508DF81F4058
:100A700006A9384600F0AAFD0121404601F010FE0B
:100A80000021404601F00CFE089430040B94CDE99F
:100A9000090408A8FFF7CAFE8DF8044000948DF8F9
:100AA000054002940494084C8DF814606946204671
:100AB000FFF7E8FE01212046FFF7AEFE0CB0BDE8CF
:100AC000F081000000040240002001401CB504F049
:100AD00079FADFF88CA1DFF88CB1634F634C644D79
:100AE000DFF8908140F6B839002601900A2101A86C
:100AF00006F0C0F9DAF80000484502DA401CCAF8EE
:100B0000000000F0EDFF9BF8000010B100F0C4FD04
:100B100016E05948007810B100F0A2FE10E05748E6
:100B2000007810B100F038FF0AE0554890ED001A47
:100B30005448D0ED000A544890ED000A00F0CEF879
:100B4000524890ED000ABDEEC00A10EE100A02F005
:100B500083FB28B100231A4619461846009649E03F
:100B6000D7ED020A97ED000A01F09AF800EE100A9C
:100B7000B8EEC00A87ED010AD4ED020A94ED000A2E
:100B800001F0CCF800EE100AB8EEC00A84ED010ABC
:100B9000D5ED020A95ED000A01F0FEF800EE100A0C
:100BA0004346B8EEC00A85ED010AD8ED020A98ED79
:100BB000000A01F02FF900EE100A3548B8EEC00A1D
:100BC00083ED010A0078062890D2DFE800F00316D2
:100BD0002A460346BDEEC00A009610EE103A95ED87
:100BE000010ABDEEC00A10EE102A94ED010AB1EE22
:100BF000400A25E001F0A8FF78E7BDEEC00A0096A4
:100C000010EE103A95ED010ABDEEC00A10EE102A62
:100C100094ED010ABDEEC00A10EE101A97ED010A1C
:100C200016E01C4800680090BDEEC00A10EE103AB5
:100C300095ED010ABDEEC00A10EE102A94ED010AEE
:100C4000BDEEC00A10EE101A97ED010AB1EE400A8F
:100C5000BDEEC00A10EE100ACCE70096E4E70000F3
:100C60004401002016010020445A0020585A002058
:100C70006C5A0020805A0020140100201501002029
:100C80002801002024010020200100204000002035
:100C9000050100201C010020FEE700001CB5012119
:100CA000084601F0CDFC4FF48070009001208DF8D3
:100CB000040000218DF8061003218DF805108DF831
:100CC00007006946014800F081FC1CBD000002409D
:100CD00070470020401C1E28FCDB70472DE9F047C0
:100CE0002DED0E8BF0EE418AB0EE408AB0EE0CEAAC
:100CF000FD4BDFF8F883FE4E1878FE4FB8EE0CCAB5
:100D00009FEDFDDBDFEDFECAFE4AFF4DFF4CB6EE68
:100D100000AA08B1012810D1B0EE681AB0EE480A56
:100D200001F04CFFFA4890ED008A90ED019AD0ED69
:100D3000028A187868B3012852D0C0B202287CD049
:100D4000032803D0042879D0052878D192ED000A31
:100D5000B0EE4E1A68EE800AB0EE480A00EECA0AFB
:100D600000EE8A8AF0EE4C0A85ED020A84ED028AD2
:100D700005F0FEFD85ED020A94ED020AB0EE4E1A72
:100D8000F0EE4C0A05F0F4FD84ED020AC6ED02CA4D
:100D9000B8E098ED000A92ED001A79EE080A30EEFC
:100DA000010A38EE491AF0EE601A48EEC00A48EE21
:100DB000801AC5ED020AB0EE602AF0EE410A08EE94
:100DC000801A48EEC00AB0EE420AC4ED020AC6ED2F
:100DD000021A87ED021AB0EE4E1AF0EE4C0A76E1D6
:100DE000DFF83083F0EE490A98ED000A40EE280A59
:100DF00020EE280A10EE100AC5ED020A07F01AFECE
:100E000069EE0AEA41EC1B0B1EEE900A07F012FE97
:100E100041EC1A0B18EE100A07F00CFE41EC190B0E
:100E2000B0EE4D0AF0EE6D0A03F05EFA9FEDBA1BCC
:100E300051EC100B53EC112B02E069E02DE163E063
:100E400007F002FB53EC192B07F0FEFA53EC1A2BB8
:100E500007F006FD53EC1B2B07F04CF807F018F8D1
:100E6000A06098ED000A20EE280A10EE100A07F0A4
:100E7000E1FD41EC190B1EEE900A07F0DBFD41ECA1
:100E80001A0B18EE100A07F0D5FD41EC180BB0EE66
:100E90004D0AF0EE6D0A03F027FA9FEDA11B51EC0D
:100EA000100B53EC112B07F0CFFA53EC182B07F073
:100EB000CBFA53EC1A2B07F0D3FC53EC192B07F0A9
:100EC00019F806F0E5FFB06095ED020AB0EE4E1A93
:100ED000F0EE4C0A05F04CFD85ED020A94ED020A95
:100EE000B0EE4E1AF0EE4C0A05F042FD84ED020A17
:100EF00096ED020AB0EE4E1AF0EE4C0A05F038FDFF
:100F000086ED020AC7ED02CABDEC0E8BBDE8F08784
:100F1000DFED85AA92ED000A914620EE0A0A10EE56
:100F2000100A07F087FD41EC190B18EE900A07F044
:100F300081FD41EC100B03F017FAB0EE40BAF0EE71
:100F400060BAD8F8000007F075FD53EC1B2B07F0D2
:100F50008DF853EC192B07F083FC06F099FF02EE95
:100F6000100A9FED721ADFED720AB0EE680A05F002
:100F7000FFFCB5EEC00AF0EE408AF1EE10FA16D092
:100F800099ED000AF0EE420A40EE4A0A60EE880A45
:100F900080EE821AF0EE420A40EE0A0A20EE880A3B
:100FA000C0EE020A85ED021AC4ED020A03E085EDE7
:100FB000028A84ED028A9FED5F0A28EE800A10EE15
:100FC000100A07F037FD41EC1B0B18EE900A07F0F2
:100FD00031FD41EC100B9FED581B02F05DFB9FEDC6
:100FE000581B51EC100B53EC112B07F02DFA41EC70
:100FF000190B18EE900A07F01DFD41EC100BB0EE36
:101000004D1AF0EE6D1A02F047FB9FED4F1B51ECAD
:10101000100B53EC112B07F017FA53EC192B06F0B9
:1010200069FF53EC1B2B07F01BFC9FED491B53EC96
:10103000112B06F05FFF06F02BFF00EE100ADFED2C
:10104000460A70EE600A9FED450A454BB0EE4E1A17
:1010500000EEAA0AF0EE4C0ABDEEC00A83ED000ACB
:1010600095ED020A05F084FC85ED020A94ED020A72
:10107000B0EE4E1AF0EE4C0A05F07AFC84ED020A4E
:10108000C6ED02CAC7ED02CA40F698024FF4487195
:10109000186805F07DFC186036E792ED000AD8ED7F
:1010A000000AB0EE4E1A30EE200A60EE280AB0EECA
:1010B000480A00EECA0A00EE8A8AF0EE4C0A85ED74
:1010C000020A84ED020A86ED028A87ED028A05F0A3
:1010D0004FFC85ED020A94ED020AB0EE4E1AF0EED6
:1010E0004C0A05F045FC3DE00501002038010020D8
:1010F0006C5A0020805A00200000000000000840C8
:101100000000000034010020445A0020585A0020FA
:10111000385A00203C010020000000000000E0BF21
:10112000000000000000E03FD7231F440AD7A33E81
:1011300048E1FABEE5D0E23F0000000000000040B8
:1011400000000000D34DF43F000000809318E4BF7E
:1011500000000000022BF93FD7A3E03F0080BB4412
:101160001C01002084ED020A96ED020AB0EE4E1A30
:10117000F0EE4C0A05F0FCFB86ED020A97ED020A40
:10118000B0EE4E1AF0EE4C0A05F0F2FB87ED020AC3
:10119000BAE600001CB50121082001F051FA082030
:1011A000009000208DF8040003208DF80500012038
:1011B0008DF807006946024800F008FA1CBD0000DF
:1011C000000C0240F0B5012189B0084601F050FA48
:1011D0000121032001F034FA03258DF80550022681
:1011E0004FF400408DF8046001242B4F00908DF8DF
:1011F00006408DF807406946384600F0E7F98DF85B
:1012000005508DF804608DF806408DF807400820E1
:10121000224C00906946204600F0D8F901220F21A7
:10122000384600F00FFA01220321204600F00AFAA6
:1012300002A802F007F800244FF6FF70ADF808404E
:1012400003907507ADF81040ADF80A4002A9284692
:1012500001F0BAFF00231A460321284601F00CFED4
:1012600005A801F078FEADF81C4005A9284601F05C
:101270001CFE0121284601F0E7FD01221146284607
:1012800001F071FE0021284601F074FF012128467B
:1012900001F0DDFD09B0F0BD000002400004024095
:1012A00030B589B00121022001F0E2F901210220CC
:1012B00001F0C6F93020039003208DF811000220C0
:1012C0008DF8100001208DF81200224C8DF81300CB
:1012D00003A9204600F07AF902220421204600F0FA
:1012E000B1F902220521204600F0ACF9684601F070
:1012F000A9FF00244FF6FF70174DADF80040019094
:10130000ADF80840ADF802406946284601F05CFFA0
:1013100000231A460321284601F0AEFD05A801F07E
:101320001AFEADF81C4005A9284601F0BEFD0121BA
:10133000284601F089FD01221146284601F013FEDE
:101340000021284601F016FF0121284601F07FFD0B
:1013500009B030BD000402400004004030B589B03F
:101360000121042001F084F90121022001F068F933
:10137000C020039003208DF8110002208DF810008A
:1013800001208DF81200224C8DF8130003A920468D
:1013900000F01CF902220621204600F053F9022237
:1013A0000721204600F04EF9684601F04BFF00246B
:1013B0004FF6FF70174DADF800400190ADF80840B2
:1013C000ADF802406946284601F0FEFE00231A46A9
:1013D0000321284601F050FD05A801F0BCFDADF841
:1013E0001C4005A9284601F060FD0121284601F0B6
:1013F0002BFD01221146284601F0B5FD00212846AB
:1014000001F0B8FE0121284601F021FD09B030BDF0
:10141000000402400008004030B589B001210820D6
:1014200001F026F90121084601F00AF90320039092
:101430008DF8110002208DF8100001208DF81200A7
:10144000224C8DF8130003A9204600F0BFF80222B9
:101450000021204600F0F6F802220121204600F08B
:10146000F1F8684601F0EEFE00244FF6FF70184DCB
:10147000ADF800400190ADF80840ADF80240694673
:10148000284601F0A1FE00231A460321284601F058
:10149000F3FC05A801F05FFDADF81C4005A9284646
:1014A00001F003FD0121284601F0CEFC0122114686
:1014B000284601F058FD0021284601F05BFE01217D
:1014C000284601F0C4FC09B030BD00000000024015
:1014D000000C004070B53B4B3B4C05221D886581DC
:1014E00022802088668933F81010B14200D36181D0
:1014F000401C80B220807B28F3D3A58122802088E5
:10150000A58933F81010A94200D8A181401C80B2EF
:1015100020807B28F3D36089A18908444008208279
:101520002280228833F81210814214D903EB420141
:101530004D8885420FD98D8885420CD9CD8885424A
:1015400009D20D89854206D24989814203D291B2DE
:10155000891CA18004E0521C91B221807629E0D33D
:10156000762161808AB233F81210814214D203EBE3
:1015700042014D8885420FD28D8885420CD2CD889C
:10158000854209D90D89854206D94989814203D905
:1015900090B2801CE08004E0521E91B26180052967
:1015A000E0D8E088A18808444008E0812189401AF9
:1015B00003F042FD5A2801D92089E081E089208189
:1015C00070BD0000B801002018000020F0B5002216
:1015D00001274FF0030C0B6807FA02F52B40AB42D2
:1015E0002CD1066853000CFA03F4A64306600E796A
:1015F000D0F800E09E4046EA0E0606600E79012E05
:1016000001D0022E12D18668A64386604E79D0F8AA
:1016100008E09E4046EA0E0686604668AE43466095
:1016200045688E799640B6B235434560C568A54396
:10163000C560CC799C40C3681C43C460521C102A0E
:10164000C9D3F0BD4B07DB0E9A40C90810B500EBBB
:101650008100016A0F249C40A1430162016A114389
:10166000016210BD0183704710B50A4C0146072383
:1016700001222046FFF72CF92046FFF763F90221EB
:101680002046FFF7F8F80028F9D02046BDE81040C2
:10169000FFF7EEB800200140F0B4644864490278D6
:1016A00064480E780578644804789FED641A644BAA
:1016B000DFED642ADFED641A644F9FED652A65480B
:1016C00097ED000A6449F1EE400A52B1012A08D0B0
:1016D000092C66D2DFE804F0654346494E5156595D
:1016E0006200092C24D2DFE804F02305080B101354
:1016F000181B200080ED000A0CE080ED000A01E0DC
:1017000080ED001AC3ED000A53E0C0ED000AF9E7CE
:10171000C0ED000A83ED001A4BE0C0ED000A01E0C5
:1017200080ED001A83ED000A43E080ED000AF9E73E
:1017300080ED001A83ED001A012E04D0012D07D090
:1017400081ED001A35E0C0EE220A60EE820A03E065
:10175000C0EE220A60EEA10AC1ED000A29E080ED88
:10176000000A0CE080ED000A01E080ED001AC1EDF6
:10177000001A0EE0C0ED000AF9E7C0ED000A81EDA5
:10178000001A06E0C0ED000A01E080ED001A81EDCC
:10179000002A012E08D0012D09D00AE080ED000AB0
:1017A000F5E780ED001AEAE781ED002A01E0C1EDDE
:1017B000001A022A06D0032A11D0052A0FD0042AC3
:1017C0000DD01FE091ED000AF0EE000A20EE200A95
:1017D000F2EE020A80EE201A81ED001A12E0D0ED3E
:1017E000000AF5EEC00AF1EE10FAD1ED000A03D2BC
:1017F000F1EE600AC1ED000A20EE800AC0EE220A76
:10180000C1ED000AD0ED000A9FED141A80EE810AA6
:1018100080ED000AD3ED001AC1EE810AC3ED000A83
:1018200091ED001AF0BCFFF759BA00000501002045
:1018300040010020410100201701002000000000AD
:10184000240100200000FA43DB0FC9BF080100207B
:10185000DB0FC93F200100202801002000007A444E
:101860003F48404A4049D0ED010AC2ED000A0988CC
:10187000403900EE101AB8EEC01A80ED131A90ED40
:10188000030A21EE000ADFED391A90ED042A3B49E4
:1018900020EE210AD0ED141A80ED141A354871EEAD
:1018A000611A9FED351A007861EE821A9FED302A99
:1018B00001EEC20A50B101280DD0022812D003282F
:1018C00013D0052821D0042829D03BE0F0EE601A7F
:1018D00020EE210A32E0B0EE601A20EE010A9FED00
:1018E000281A2BE09FED271A28E0B0EE601AB5EE1B
:1018F000C01AF1EE10FA01D2B1EE400AB0EE601A51
:1019000020EE010A9FED201A18E0F0EE601AF5EEC5
:10191000C01AF1EE10FAD9D2B1EE400AD6E7B0EE15
:10192000601AB5EEC01AF1EE10FA01D2B1EE400A1B
:10193000B0EE601A20EE010A9FED141AC0EE011AF3
:10194000C1ED001A9FED121A124880EE810A82ED55
:10195000000A91ED001AD0ED000AFFF7BFB90000B0
:10196000440100202001002026000020CDCCCCBD69
:10197000CDCCCC3D0501002000504347280100207C
:101980000010A4460000E14300DC824700089D46A9
:1019900000007A44240100204248434A4349D0EDE4
:1019A000020AC2ED000A0968C1F1640100EE101AD2
:1019B000B8EEC01A80ED151A90ED050A21EE000A66
:1019C000DFED3B1A90ED062A3C4920EE210AD0EDCE
:1019D000161A80ED161A384871EE611A007861EE19
:1019E000821A9FED342A01EEC20A50B101280FD0AD
:1019F000032814D0052822D0042830D002283ED055
:101A000043E0B0EE601A20EE010A9FED2D1A38E097
:101A1000B0EE601A20EE010A9FED2A1A31E0B0EE16
:101A2000601AB5EEC01AF1EE10FA01D2B1EE400A1A
:101A3000B0EE601A20EE010A9FED231A21E0B0EE0D
:101A4000601AB5EEC01AF1EE10FA01D2B1EE400AFA
:101A5000B0EE601A20EE010A9FED1C1A11E0B0EE04
:101A6000601AB5EEC01AF1EE10FA01D2B1EE400ADA
:101A7000B0EE601A20EE010A9FED151A01E09FED0D
:101A8000151AC0EE011AC1ED001A9FED131A134882
:101A900080EE810A82ED000A91ED001AD0ED000A75
:101AA000FFF71CB94401002020010020380000206D
:101AB0000AD7A3BDCDCC4C3D050100202801002054
:101AC0000050434700C0284600C82F4700C0DA46F0
:101AD00000089D460000E14300007A4424010020F4
:101AE00010B502202DED048B00F07CFE3C4C2060F4
:101AF000032000F077FE6060042000F073FEA06019
:101B0000052000F06FFE3749E0600978062919D2F8
:101B1000DFE801F04703575747572168494200EE75
:101B2000101A6168F8EEC09A494200EE101AA168D6
:101B3000B8EEC09A494200EE101A4EE000EE100ACC
:101B4000B8EEC08A9FED281A284869EE810A90ED08
:101B5000000A274860EE801AD0ED000A254881EE81
:101B6000A02A69EE011A61EE801A80ED002A81EE4A
:101B7000A02A68EE811A204828EE011A61EE801A28
:101B800021EE000A80EE201A80ED002A1B4881EE2B
:101B9000A02A80ED002A1A4880ED001ABDEC048BC3
:101BA00010BD94ED000AA168F8EEC09A94ED010A08
:101BB00049424042B8EEC09A00EE101AF8EEC08AD0
:101BC000BCE794ED000A6168F8EEC09A494200EE65
:101BD000101AB8EEC09A94ED020AF8EEC08AADE78A
:101BE000945A0020050100200000C8423001002066
:101BF0002C010020445A0020585A00206C5A002022
:101C0000805A00202DE9F04100250E4607462C465B
:101C100008E03846FFF728FD0544052003F036F9B3
:101C2000641CE4B2B442F4D3B5FBF6F080B2BDE874
:101C3000F081000010B50820FFF716FD06F0B4FB98
:101C40009FED0E1B53EC112B06F0FEFB9FED0D1BC1
:101C500053EC112B06F0F8FB9FED0C1B53EC112BF2
:101C600006F0F2FB9FED0B1B53EC112B06F0ECFB87
:101C700006F00EF900EE100A10BD000066666666FA
:101C800066660A4000000000000026400000004098
:101C9000E17AF03F000000000000303FFEE7000066
:101CA000174830EEC00A1749D0ED090A174A91EDDE
:101CB000001A70EE600A144960EE810A91ED001A74
:101CC00041EE000A90ED081A70EE810A10EE901AAB
:101CD000C0ED080A914203DDDFED0D0AC0ED080AF0
:101CE00010EE901A0B4A914203D9DFED0B0AC0EDBA
:101CF000080A80ED090ABDEEE00A10EE100A7047EE
:101D0000440100200C010020100100200040834607
:101D100000408346004083C6004083C6174830EE2B
:101D2000C00A1749D0ED0C0A174A91ED001A70EE5F
:101D3000600A144960EE810A91ED001A41EE000A32
:101D400090ED0B1A70EE810A10EE901AC0ED0B0A9E
:101D5000914203DDDFED0D0AC0ED0B0A10EE901A83
:101D60000B4A914203D9DFED0B0AC0ED0B0A80ED5F
:101D70000C0ABDEEE00A10EE100A70474401002084
:101D80000C010020100100200040834600408346E3
:101D9000004083C6004083C6174830EEC00A17498A
:101DA000D0ED0F0A174A91ED001A70EE600A14493F
:101DB00060EE810A91ED001A41EE000A90ED0E1AD4
:101DC00070EE810A10EE901AC0ED0E0A914203DD0A
:101DD000DFED0D0AC0ED0E0A10EE901A0B4A91428B
:101DE00003D9DFED0B0AC0ED0E0A80ED0F0ABDEE40
:101DF000E00A10EE100A7047440100200C01002098
:101E0000100100200040834600408346004083C606
:101E1000004083C6174830EEC00A1749D0ED120AB9
:101E2000174A91ED001A70EE600A144960EE810ABB
:101E300091ED001A41EE000A90ED111A70EE810A40
:101E400010EE901AC0ED110A914203DDDFED0D0A8C
:101E5000C0ED110A10EE901A0B4A914203D9DFED42
:101E60000B0AC0ED110A80ED120ABDEEE00A10EE79
:101E7000100A7047440100200C01002010010020CE
:101E80000040834600408346004083C6004083C62E
:101E90001CB50121102000F0D3FB00218DF80410A7
:101EA000032101208DF8051000908DF80700694688
:101EB0000148FFF78BFB1CBD001002407CB50121DF
:101EC000084600F0BDFB01208DF8040000228DF8CB
:101ED000062003218DF80510074D4FF480548DF82E
:101EE0000700009469462846FFF770FB2146284604
:101EF000FFF7B8FB7CBD000000000240FEE70000D9
:101F00002DE9F0418846074601218AB0880400F097
:101F1000BBFB0121022000F093FB1F4E032209218D
:101F20003046FFF78FFB7015009002208DF80400FB
:101F300003208DF8050000248DF8064001258DF85A
:101F4000075069463046FFF741FB144EADF8088054
:101F50000397ADF81050ADF80A4002A9304601F0E1
:101F600033F96020ADF81400ADF81650ADF82040FC
:101F700005A9304601F000F80821304601F02CF8A0
:101F80000121304600F056FF0121304600F05FFF8E
:101F90000AB0BDE8F08100000004024000480140A2
:101FA0002DE9F0418846074601218AB0084600F035
:101FB0006BFB0121102000F043FB354E012209216B
:101FC0003046FFF73FFB01220B213046FFF73AFB7B
:101FD00001220D213046FFF735FB01220E2130464C
:101FE000FFF730FB4FF4D440059002208DF8180025
:101FF00003208DF8190000248DF81A4001258DF872
:102000001B5005A93046FFF7E1FA224EADF81C80BF
:102010000897ADF82450ADF81E4007A9304601F0EE
:10202000D3F86020ADF80000ADF80250ADF80C40D8
:102030006946304600F0A0FF6946304600F0D2FF06
:102040006946304601F018F86946304601F058F804
:102050000821304600F0C0FF0821304601F002F8A8
:102060000821304601F046F80821304601F078F8A2
:102070000121304600F0F5FE0121304600F0DAFE85
:102080000121304600F0E3FE0AB0BDE8F081000017
:1020900000100240000001402DE9F04389468046CF
:1020A00001218BB0080400F0EFFA0121102000F0AC
:1020B000C7FA254F032205213846FFF7C3FA03224A
:1020C00006213846FFF7BEFA02208DF818000320DB
:1020D0008DF81900002460268DF81A400125059618
:1020E0008DF81B5005A93846FFF770FA174FADF869
:1020F0001C90CDF82080ADF82450ADF81E4007A903
:10210000384601F061F8ADF80060ADF80250ADF866
:102110000C406946384600F02FFF6946384600F00B
:1021200061FF0821384600F057FF0821384600F0CB
:1021300099FF0121384600F07DFE0121384600F06C
:1021400086FE0BB0BDE8F083001002400040014065
:102150002DE9F0418846074601218AB0480400F085
:1021600093FA0121022000F06BFA1F4E032208218E
:102170003046FFF767FAB015009002208DF8040092
:1021800003208DF8050000248DF8064001258DF808
:10219000075069463046FFF719FA144EADF808802B
:1021A0000397ADF81050ADF80A4002A9304601F08F
:1021B0000BF86020ADF81400ADF81650ADF82040D3
:1021C00005A9304600F0D8FE0821304600F004FF93
:1021D0000121304600F02EFE0121304600F037FE8E
:1021E0000AB0BDE8F0810000000402400044014054
:1021F0007047000030B50F23C27801780125FAB18D
:10220000144A126801F1E02102F4E062C2F5E062D2
:10221000C2F30722C2F10404D3404278A24084787A
:102220001C401443220181F80024007800F01F01B3
:102230008D404009800000F1E020C0F8005130BD21
:1022400001F01F0085404809800000F1E020C0F83F
:10225000805130BD0CED00E002490843024908609E
:10226000704700000000FA050CED00E010B40021FA
:10227000084B0A46002003EBC004401CC0B2625465
:102280008028F8D3491CC9B20829F3D310BC00F048
:10229000D3B80000B802002010B57F2816D83F2917
:1022A00014D80723A3EBD10301F00701C1F1070400
:1022B0000121A140064CDBB204EBC000002AC25C45
:1022C000C9B201D00A4300E08A43C25410BD0000E5
:1022D000B80200202DE9F04116460D4607460024BD
:1022E000FFF7DAFF324629463846FFF7D5FF2819AF
:1022F000C1B232463846FFF7CFFF641CE4B2082C67
:10230000F5D3BDE8F08100007CB50121082000F084
:1023100097F901268DF8046000244FF4F0408DF801
:10232000064000908DF805408DF80740694640480A
:10233000FFF74CF90121080700F09AF9012000F09D
:1023400079F9002000F000FA002000F073F9394D0F
:10235000C5F8B042642005F52C7502F097FD2E609B
:102360000021AE2000F044F90021D52000F040F912
:102370000021502000F03CF90021A82000F038F99D
:1023800000213F2000F034F90021D32000F030F983
:102390000021084600F02CF90021402000F028F927
:1023A00000218D2000F024F90021142000F020F9F4
:1023B0000021202000F01CF90021022000F018F973
:1023C0000021A12000F014F90021C02000F010F934
:1023D0000021DA2000F00CF90021122000F008F9A9
:1023E0000021812000F004F90021EF2000F000F925
:1023F0000021D92000F0FCF80021F12000F0F8F8CD
:102400000021DB2000F0F4F80021302000F0F0F88B
:102410000021A42000F0ECF80021A62000F0E8F84C
:102420000021AF2000F0E4F8FFF720FF7CBD0000A2
:10243000000C02400080414270B5104E002505F1AD
:10244000B000C0B2002100F0D3F80021084600F02F
:10245000CFF80021102000F0CBF8002406EBC400D8
:102460000121405D00F0C4F8641CE4B2802CF5D377
:102470006D1CEDB2082DE2D370BD0000B802002043
:102480002DE9F04F203A98460D468346894602F0E2
:10249000FF0A00262EE0B8F10C0F08D0174901EB17
:1024A0000A100027845D200607D5099A08E0144920
:1024B0000AEB4A0001EB8000F3E7099890B1002293
:1024C00029465846FFF7E8FE6D1C6006EDB2040E83
:1024D000A5EB0901414507D10BF101004D4600F084
:1024E000FF0B05E00122EBE77F1CFFB2082FDAD3D8
:1024F000761CF6B24645CED3BDE8F08F8E9000082C
:102500001A8C00082DE9FF4F81B00027DDF838B0A4
:102510001D46924680463C464FF001094FEA5B0655
:1025200027E0281B401EC1B20A2002F089FDBAFB39
:10253000F0F00A21B0FBF1F201FB120027B9691E8D
:102540008C4201DA48B101273030C2B206FB048068
:10255000C0B25B46CDF8009006E006FB0480C0B236
:102560005B462022CDF800900299FFF789FF641C9A
:10257000E4B2AC42D5D305B0BDE8F08FF8B516464D
:102580000D460446012714E07A2C02D900241035A8
:10259000EDB23A2D03D900242546FFF767FE0097D8
:1025A00032780C2329462046FFF76AFF0834E4B24C
:1025B000761C30780028E7D1F8BD000070B50A4DD0
:1025C0000A4E002435F814003188884201D20122D5
:1025D00000E0002200212046FFF77CFE641CE4B2EC
:1025E000802CEFD370BD0000B8010020280000202F
:1025F00030B500230E4A012411B1C2F8AC4201E00B
:10260000C2F8AC320021C2F8B832050602D5C2F8D1
:10261000B44201E0C2F8B432C2F8B8424006491CE4
:10262000000EC9B20829EED3C2F8AC4230BD00009A
:1026300000804142014908627047000000000E42DC
:10264000044A0029116801D0014300E08143116070
:102650007047000030380240044A0029116801D058
:10266000014300E0814311607047000014380240CC
:10267000044A0029116801D0014300E08143116040
:102680007047000040380240044A0029116801D018
:10269000014300E08143116070470000443802406C
:1026A000044A0029116801D0014300E08143116010
:1026B000704700002438024070B5204B1968204C48
:1026C00011F00C0104D06610042903D0082903D0AE
:1026D00004601BE0066019E0184A121F1168C1F37C
:1026E0008055116801F03F0115B1B6FBF1F101E031
:1026F000B4FBF1F114681268C4F388146143C2F3A7
:102700000142521C5200B1FBF2F1016019680F2224
:1027100002EA11110B4A545C0168E14041601C68F7
:10272000072505EA9424145D21FA04F484601B68EB
:1027300005EA5333D25CD140C16070BD0838024015
:102740000024F40080000020054900220A700A706D
:10275000012802D0042801D105200870704700002C
:10276000703802402DE9F04700251B4E2C462946C3
:10277000C6F89452194AC2F8905202F5247206F52E
:102780002576FEF7A6FA01271760FEF7A2FA316058
:10279000FEF79FFA3760A6F52576FEF79AFA1160E4
:1027A000FEF797FADFF838908846C6F89482FEF76D
:1027B00090FA0420FEF758FF010929F81410641C50
:1027C000E4B2C6F89472FEF784FA6D1CEDB2802D67
:1027D000EBD3BDE8F087000000004042000041421A
:1027E000B80100200021022807D003280BD00428BC
:1027F0000BD005280BD0002070474FF08042506A64
:10280000516200B27047044A02E0044A00E0044A00
:102810001068116000B27047240400402408004092
:10282000240C004010B551EC100B2DED068BB0EED2
:10283000439AF0EE629AB0EE42AAF0EE618AB0EEF0
:10284000418A05F025FBBDEECA0A154910EE102A93
:10285000BDEEE90A086081ED018A10EE103AC1ED83
:10286000058AC1E9022381ED049A9900514300EEE3
:10287000101A0C49B8EEC00A81ED000A9FED0A0A51
:102880000A4929EE000A81ED000A09490860094851
:1028900080ED008A0848C0ED008ABDEC068B10BDB3
:1028A000A45A00202C010020DB0F494030010020F9
:1028B00034010020380100203C01002010B5324CCA
:1028C0004FF4AD700A2120600920FFF79BF92168C1
:1028D00090FBF1F02D49C0B20528087001D9052000
:1028E0000870C0B29FED2A1A9FED2A3A062849D2F5
:1028F000DFE800F003101B262F3AF0EE411A9FED9F
:10290000263AF2EE0A2AB3EE0E2A9FED241A9FED24
:10291000240B33E09FED243AF2EE0A2AB3EE0E2A9E
:10292000DFED221A9FED220B28E0F0EE411AF2EEC5
:102930000A2AB3EE0E2A9FED201A9FED200B1DE010
:10294000F2EE0A2AB3EE0E2AF0EE411A9FED1D0BAD
:1029500014E0F0EE411AF2EE0A2AB3EE0E2A9FEDD1
:102960001B1A9FED1B0B09E09FED1B3A9FED1B0B04
:10297000F2EE0A2AB3EE0E2AF0EE411ABDE810403C
:10298000FFF750BF10BD0000180100200501002016
:1029900000000000B81E853D9A99993D7B14AE3D1C
:1029A000022B8716D9CEB73F8FC2753D643BDF3D02
:1029B0000000000000000000BC74133E0000008016
:1029C0006ABCC43F000000A0EFA7C63FE926313E25
:1029D000000000C09DEFC73FC520303D000000E073
:1029E0007A14CE3F2DE9F041884606468AB001218F
:1029F0000220FFF749FE01210420FFF721FE0220FB
:102A00008DF818000002059003208DF819000024AD
:102A10001E4F8DF81A4001258DF81B5005A9384628
:102A2000FEF7D4FD032209213846FEF70BFE089677
:102A3000174EADF81C80ADF82440ADF81E4007A934
:102A4000304600F0C1FB6020ADF80000ADF8025048
:102A50000294ADF80C40ADF810406946304600F0E5
:102A60004FFB0821304600F07BFB0121304600F08F
:102A7000F8F90121304600F0EAF9054940F2DC504E
:102A8000403108600AB0BDE8F08100000008024053
:102A9000000401400CB50022274900920192086809
:102AA00040F4803008604FF4A043086800F4003020
:102AB00001900098401C0090019810B9009898422D
:102AC000F3D10868800334D5012001901A484030C2
:102AD000026842F0805202601848026842F44042A4
:102AE00002601548083002680260026842F4004241
:102AF0000260026842F4A0520260031F104A1A608A
:102B00000A6842F080720A600A689201FCD50D4999
:102B100040F205720A60016821F00301016001685A
:102B200041F0020101600168C1F381010229FAD17B
:102B30000CBD01920CBD0000003802400070004046
:102B400008544007003C0240F0B5174E174F059D52
:102B500044F2A014002803DA34602044386002E014
:102B60003C60201A30601248002903DA4463214493
:102B7000816302E08463611A41630E48002A03DA2C
:102B800044631119816302E08463A11A4163002B3D
:102B900003DA04641919C16302E0C463E11A016431
:102BA00005480560F0BD0000344801403444014050
:102BB00000400140000001404004014000B5B0EE7B
:102BC000412AF0EE602AB0EE401A9FED490A4948CA
:102BD000D0ED001ADFED480AB5EEC01AF1EE10FA9A
:102BE00002DD71EE801A0EE0B5EEC01AF1EE10FAB9
:102BF00002D271EEC01A06E0B5EEC01AF1EE10FA7C
:102C000003D161EEA01AC0ED001A3A49F5EEC02AD0
:102C1000D1ED011AF1EE10FA02DD71EE801A0EE02C
:102C2000F5EEC02AF1EE10FA02D271EEC01A06E0FB
:102C3000F5EEC02AF1EE10FA03D161EEA01AC0ED54
:102C4000011A2C49B5EEC02AD1ED021AF1EE10FAA4
:102C500002DD31EE800A0EE0B5EEC02AF1EE10FA88
:102C600002D231EEC00A06E0B5EEC02AF1EE10FA4B
:102C700003D121EEA00A80ED020AB0EE410A02F073
:102C80008DF9F0EE400AB0EE410A02F087F9F1EE5C
:102C9000401AB0EE601A90ED000AF0EE610A03F0FF
:102CA00067FE80ED000AB0EE620A02F077F9B0EE3E
:102CB000401AB0EE620A02F071F9F1EE400A90EDAE
:102CC000010A03F055FE80ED010AB0EE420A02F05F
:102CD00065F9B0EE401AB0EE420A02F05FF9F1EE8B
:102CE000400A90ED020A03F043FE80ED020A00BDA7
:102CF0000AD7233C385A00206666663F4FF0E02131
:102D00000428086903D020F004000861704740F0EF
:102D10000400FAE710B504F053FE012803D0BDE823
:102D2000104004F041BB10BD124810B5016841F4D9
:102D3000700101601048016841F0010101600E4A14
:102D400000210832116002680C4B1A400260031D1A
:102D50000B4A1A60026822F48022026006480C3096
:102D60000160FFF797FE03494FF00060803908606B
:102D700010BD000088ED00E000380240FFFFF6FEC5
:102D80001030002470B5048C24F001040484058BF9
:102D9000048C4FF6FF7606EA0313134325F0F30580
:102DA0002B4324F00A020A4342F001010383018409
:102DB00070BDF0B5048C24F010040484078B068CDD
:102DC0004FF6FF7404EA011527F4734704EA033150
:102DD000394304EA02220A4326F0A001294341F0C4
:102DE000100102830184F0BD4FF08040018A018A06
:102DF00021F001010182704703480188018821F018
:102E00000101018070470000100400400348018860
:102E1000018821F001010180704700001008004086
:102E200003480188018821F00101018070470000FA
:102E3000100C00400029018802D041F0800101E01F
:102E400021F0800101807047C94301827047002949
:102E5000018802D041F0010101E021F0010101806F
:102E60007047002930F8441F02D041F4004101E0CE
:102E7000C1F30E010180704770B50589048B068C83
:102E800025F007050D434FF6FC410C4040F20111BF
:102E90000C434FF6FF7101EA031126F0220611439D
:102EA000314305810483018470BD2DE9F0410C4656
:102EB0000E884988A2882389054616B3042E28D097
:102EC000082E2E8C4FF6FF702BD026F480562E84C1
:102ED000AF8B2E8C00EA022200EA013127F47347FF
:102EE0003A4300EA0330104326F420420A4342F4F6
:102EF0008051A8832984E1882846BDE8F04100F08C
:102F000057B9FFF73FFFE1882846BDE8F04100F0E0
:102F100033B9FFF74EFFE1882846BDE8F04100F0E5
:102F200033B926F480762E84AF8B2E8C00EA0121F3
:102F300000EA0310104327F0F307384326F4206219
:102F40000A4342F48071A8832984E1882846BDE8B9
:102F5000F04100F025B900210180418001228280EA
:102F6000C18001817047002A828901D00A4300E0B4
:102F70008A4382817047000030B5028C22F0010242
:102F80000284028C8388048B22F0020224F07305F1
:102F90000C882C438D8915434A882A430C4DA8423E
:102FA00002D00C4DA8420DD122F00805CA8923F4A5
:102FB00040732A4322F004058A882A430D8A1D4360
:102FC0004B8A2B438380048389684163028430BD2C
:102FD0000000014000040140028B22F008020A4375
:102FE0000283704770B5028C22F010020284028CBA
:102FF0008388048B0D8824F4E6464FF6FF7404EAB8
:10300000052535438E8922F0200204EA0616164370
:103010004A8804EA02123243104EB04202D0104EE7
:10302000B04215D122F08006CA8923F4406304EA35
:103030000212324322F040068A8804EA0212324326
:103040000E8A04EA86061E434B8A04EA830333434E
:103050008380058389688163028470BD000001401C
:1030600000040140028B4FF6FF7322F4006203EA72
:10307000012111430183704770B5028C22F48072E4
:103080000284028C8388848B0D8824F0730425438A
:103090008E894FF6FF7422F4007204EA0626164366
:1030A0004A8804EA02223243104EB04202D0104E47
:1030B000B04215D122F40066CA8923F4405304EAD1
:1030C0000222324322F480668A8804EA02223243D2
:1030D0000E8A04EA06161E434B8A04EA031333439E
:1030E000838085838968C163028470BD00000140CC
:1030F00000040140828B22F008020A438283704759
:1031000070B5028C22F480520284058C8288838BF5
:103110000C8823F4E6464FF6FF7303EA0424344395
:1031200025F400568D8903EA053535434E8803EAB8
:1031300006362E43084DA84202D0084DA84205D1BC
:1031400022F480450A8A03EA82122A438280848319
:1031500089680164068470BD0000014000040140DC
:10316000828B4FF6FF7322F4006203EA01211143C0
:103170008183704741627047028B22F00C02028308
:10318000028B0A4302837047028B22F4406202835F
:10319000028B4FF6FF7303EA01210A430283704753
:1031A000828B22F00C028283828B0A4382837047D7
:1031B000828B22F440628283828B4FF6FF7303EA94
:1031C00001210A438283704730B50288164C174D9F
:1031D000A0420DD0A8420BD0B0F1804F08D0144BC4
:1031E000984205D0134B984202D0134B984203D11A
:1031F00022F070034A881A43104B984206D0104BB5
:10320000984203D022F440730A891A4302804A6824
:10321000C2620A880285A04201D0A84201D1897AFF
:1032200001860121818230BD00000140000401407F
:103230000004004000080040000C00400010004066
:10324000001400404FF0FF314160002101800181F6
:1032500041808172704700000A2809DB0548D0F8D8
:103260000C0228B104480078012801D000207047E2
:1032700001207047008041420401002010B5064C37
:1032800040F22551204600F05BF910B1204600F0D5
:10329000E5F9002010BD0000001001402DE9F047C5
:1032A00040F225512DED048B884800F049F90028A3
:1032B0007ED08648001D0088854A864D864E874B05
:1032C000012100244B2808D0492808D04A2806D0DC
:1032D0001B782BB1012B0BD01BE019700CE01C707C
:1032E000A0F14103072B29D9082811DC107010E048
:1032F000432808D0472809D02C70347041281DD0AD
:1033000045281BD004E02C70317001E02970347026
:1033100014709FED730A734E734DDFF8D081DFF8A0
:10332000D0919FED749ADFF8D0A158280AD059287F
:103330000DD07B2817D07D281BD00EE0A0F14003D4
:103340001370E6E7D8ED000A30EE800A03E0D8ED0E
:10335000000A30EEC00A88ED000A2A78012A03D05C
:10336000022A08D091E0297069787054491C69706C
:103370008BE002202870F078502805D07078232840
:103380007AD06878A8702BE05C48017074E06978A6
:10339000081A04F0F2FF41EC110B9FED590B00F0FD
:1033A0007BF9AF78B0EE408AF0EE608AF01900E069
:1033B00086E010F8010C303804F0DFFF53EC182BD6
:1033C00005F042F841EC180B686805F033FB53EC4C
:1033D000182B04F08FFD04F05BFD7F1E6860AF705A
:1033E000A8780428D3D248480078A0B17078303843
:1033F000032841D2DFE800F002070B0095ED010A37
:1034000088ED000A38E095ED010A404832E095ED7C
:10341000010A3F482EE03F480078A0B1707830386C
:10342000032829D2DFE800F002070B0095ED010A1E
:103430008AED000A20E095ED010A37481AE095ED83
:10344000010A364816E036480078A8B1707830385E
:10345000032811D2DFE800F002070B0095ED010A06
:1034600089ED000A08E095ED010A2E4802E095ED8D
:10347000010A2D4880ED000A2C706C70AC7085ED4F
:10348000019A32211748FDF768F898ED000AB5EE69
:10349000C00AF1EE10FA01D288ED009A99ED000A07
:1034A000B5EEC00AF1EE10FA01D289ED009A9AED5C
:1034B000000AB5EEC00AF1EE10FA01D28AED009AC8
:1034C0000020BDEC048BBDE8F08700000044004004
:1034D000170100204001002041010020420100208E
:1034E0000000C842B80600206C000020080100203F
:1034F00048010020000000004C0100204301002092
:103500000000000000002440160100200C010020F3
:103510001001002015010020580100205C0100204E
:10352000140100205001002054010020002981894D
:1035300002D041F4005101E021F400518181704733
:1035400070B501F01F0501260024C1F3421306FAED
:1035500005F2012B0FD0022B0FD0838A4FEA1121E5
:103560000088134206FA01F600EA060001D000B115
:103570000124204670BD8389F0E7038AEEE710B589
:10358000C1F3421301F01F040121A140012B07D018
:10359000022B07D01430002A026805D00A4304E049
:1035A0000C30F8E71030F6E78A43026010BD0000E7
:1035B0007FB50446008A0D46C98820F44050014377
:1035C0002182A08941F20C618843A9882A8911438C
:1035D0006A8902431143A181A08A20F44071A8891D
:1035E0000843A0826846FFF767F81A48844202D071
:1035F0001948844201D1039800E00298A189090486
:1036000000EBC00101EB0010296801D5490000E082
:103610008900B0FBF1F06422B0FBF2F109010B0963
:103620006FF018056B4300EB8300A3891D044FF076
:10363000320306D503EBC000B0FBF2F000F0070048
:1036400005E003EB0010B0FBF2F000F00F000843C0
:1036500020817FBD00100140001401408088C0F32C
:1036600008007047FEE703B401984100009850EA53
:10367000C12018BF04204A0D18BF40F0010040F2DD
:10368000FF72B2EB515F08BF40F00200012808BF93
:10369000052002B0704700002DE9F04D2DED040B20
:1036A0002DED0E8B96B0DDE92550279CDDF890A01E
:1036B00025F0004624F00048BAF1000F14BF0121A4
:1036C000002101EB4502FC4953184A1093422AD3CA
:1036D000002814BF0123002303EB44030B44F749E4
:1036E0008B4220D358EA00019FEDF59B76D0DFF89E
:1036F000D8B35D4503D1BAF1000F05D188E0BAF126
:10370000000F08BF002100D0012101EB450111F598
:10371000001F08D8002814BF0121002101EB44013B
:1037200011F5001F0BD99DED261B9DED240B16B046
:10373000BDEC0E8B04B0BDE8F04D01F0B7BA002728
:10374000002DBCBFE149884521DAE1498845A8BF81
:1037500002271CDAC3451ADCDE4901EB2851142983
:1037600008DDC1F1340220FA02F101FA02F28242CC
:103770000DD108E058B9C1F1140228FA02F101FA9A
:1037800002F2424503D101F00101C1F1020756EAFC
:103790000A0124D1002C22DA002D18BF022F01D0FB
:1037A000012F0AD00220FCF703FF16B0BDEC0E8BF0
:1037B00004B0BDE8F04D01F057BA0220FCF7F8FE66
:1037C00001F052FA51EC100B04F056FB41EC100BD7
:1037D00016B0BDEC0E8B04B0BDE8F08D18E09FED87
:1037E000BEAB9FEDBF8B002871D1B848804522D178
:1037F00005F1804010F5801008BFBAF1000F07D026
:10380000B3450ADC002CA8BF9DED260BE0DA0DE0E5
:10381000B0EE490AF0EE690ADAE7002C06DA9DED0F
:10382000260B51EC100B04F027FB6FE0AE487844F8
:1038300090ED000BCCE7D8454DD1002C48DA2EB1E5
:1038400086423AD1BAF1000F42D126E0BAF1000F18
:1038500013D00220FCF7ACFE01F042FA8DED020B12
:103860009DED240B8DED000B10EE900A039961F392
:103870001E0003909DED020BAAE78DED02AB9DEDBE
:10388000240B1AEE901A10EE900A8DED000B61F3E6
:103890001E0003909DED020B9AE78DED028B9DEDCE
:1038A000240B18EE901A10EE900A8DED000B61F3C8
:1038B0001E0003909DED020B8AE709DA9DED240BB3
:1038C00051EC190B53EC102B04F0D0FB1EE020E060
:1038D0009DED240B7CE786421BDAB4F1804F0DD0BE
:1038E000A4F10050B0F1FF5013D1002D11DB9DED7C
:1038F000240B51EC100B02F055FF07E09DED240B5B
:1039000053EC102B51EC100B00F0C2BC41EC100B2F
:103910005EE79DED240B51EC100B01F033FBBAF187
:10392000000FCDE90E0142D19FED710B46B3A6F118
:10393000E040B0F17F600CD05E4538D1002D00DA58
:10394000A7B3022F0CBF01204FF0FF3004F015FD8C
:10395000DCE7002D01DD002C0DDA002D01DD002C4F
:103960001FDB002D16DA002C14DB012F08BF9FEDA2
:10397000620B3FF42DAFB0EE4A0AF0EE6A0A27E779
:10398000022F18BF002D0CD0012F0AD1002DFFF6F9
:103990001FAF06E0002DB8BF002C08DA012F3FF45E
:1039A00017AFB0EE480AF0EE680A11E71BE00120FD
:1039B00000EBE57050EA070115D0791EB0EE498A98
:1039C000F0EE698A084308BF9FED4D8B4E480025F5
:1039D000804570DD4D494E48884514DDB0420DDB11
:1039E000002C19DB2FE00120FCF7E2FD16B0BDEC46
:1039F0000E8B04B0BDE8F04D01F062B9B34502DCB6
:103A0000002C09DC1FE0864202DA002C1BDA03E0FE
:103A10005E452BDD002C16DD0220FCF7C9FD01F010
:103A20005FF98DED020B53EC1A2B51EC180B04F0DF
:103A30000BFDCDE900010399019861F31E0003908D
:103A40009DED020BC4E60220FCF7B2FD01F058F92F
:103A500010EE901A18EE900A8DED020B8DED008B92
:103A600061F31E0003909DED020BB1E69DED0E0B80
:103A700053EC192B51EC100B04F0F2FE9FED260BCA
:103A8000CDE9080153EC102B9DED080B51EC100B08
:103A900004F0DAFC9FED221B53EC112B04F008FE1E
:103AA0009DED081B53EC112B04F0CEFC9FED1E1B6B
:103AB00053EC112B3CE08CE0FFFF1F00FFFF0F00D9
:103AC000000000000000F03F0000F03F0000F07F29
:103AD0000000404301FCFFFF000000000000F07FF9
:103AE0000000000000000000166900000000000057
:103AF0000000000000000080000000000000F0FF57
:103B0000000000000000F0BF0000E0410000F043B2
:103B1000FFFFEF3F00000000000000000000D03F6A
:103B2000555555555555D53F000000000000E03F64
:103B300004F0BEFD9DED080B41EC1A0B53EC102B6D
:103B400051EC100B04F080FC53EC1A2B04F07CFCBD
:103B500041EC1A0B9FEDFE0B53EC102B9DED080B67
:103B600051EC100B04F070FC41EC1B0B9FEDFA0BB9
:103B700051EC1A0B53EC102B04F066FC41EC1A0BC1
:103B80009FEDF70B53EC102B9DED080B51EC100B38
:103B900004F05AFC53EC1A2B04F062FE41EC1A0BB1
:103BA00051EC1B0B53EC1A2B04F0A4F90690CDE951
:103BB00006519DED060B53EC1B2B51EC100B04F042
:103BC0004FFE53EC1A2B04F073FD41EC100B00F088
:103BD000A1B90020B6F5801F0EDA9FEDE30B53EC80
:103BE000102B9DED0E0B51EC100B04F02DFCCDE9CC
:103BF0000E016FF034000E4600EB2650A0F2FF37A6
:103C0000C6F31300DA4940F07F6646F0405688421A
:103C1000D8BF002408DDD7498142C8BF012403DC96
:103C20000024A6F580167F1CD348784400EBC4001E
:103C30000F9690ED00CB9DED0E0B53EC1C2B51EC31
:103C4000100B04F00DFE9DED0E0B41EC1B0B53EC25
:103C50001C2B51EC100B04F04DF941EC100B51EC06
:103C6000190B53EC102B04F001FA41EC1D0B51EC35
:103C70001B0B53EC1D2B04F0E7FB41EC1A0BBF4868
:103C80008DED10AB7844109590ED000B4FF0005087
:103C900040EA660000EB84408DED080B00F5002043
:103CA00009909DED080B53EC1C2B51EC100B04F00C
:103CB000D7FD9DED0E1B53EC112B04F0F9FC41ECEC
:103CC000100B53EC102B9DED100B51EC100B04F06E
:103CD000BBFB9DED080B41EC1C0B53EC102B9DED39
:103CE000100B51EC100B04F0AFFB53EC1B2B04F04A
:103CF000DFFC53EC1C2B04F0B3FD53EC1D2B04F044
:103D0000A3FB41EC1C0B53EC1A2B51EC1A0B04F0E7
:103D10009BFB41EC1B0B9A480621B0EE4B0AF0EEE0
:103D20006B0A784400F07CFDB0EE401AF0EE601AA9
:103D3000B0EE41DAF0EE61DA53EC1B2B51EC1B0BC9
:103D400004F082FB53EC1D2B04F07EFB9DED100B69
:103D500041EC1B0B53EC1A2B51EC100B04F0CAF87E
:103D600053EC1C2B04F070FB53EC1B2B04F0C2F83B
:103D70009DED100B41EC1B0B53EC102B51EC100B79
:103D800004F062FB41EC1D0B9FED7FEB53EC1E2B0F
:103D900004F0B0F853EC1B2B04F0ACF80890CDE91C
:103DA00008519DED080B53EC1E2B51EC100B04F049
:103DB00057FD53EC1D2B04F053FD53EC1B2B04F06B
:103DC00077FC9DED080B41EC1D0B53EC102B9DED8A
:103DD000100B51EC100B04F037FB41EC1B0B53ECB8
:103DE0001A2B51EC1D0B04F02FFB9DED080B41EC41
:103DF0001A0B53EC102B51EC1C0B04F025FB53EC6D
:103E00001A2B04F077F841EC1A0B51EC1B0B53EC16
:103E10001A2B04F06FF80C90CDE90C519DED0C0BB2
:103E200053EC1B2B51EC100B04F01AFD53EC1A2B26
:103E300004F03EFC41EC1B0B9FED550B53EC102B9B
:103E40009DED0C0B51EC100B04F0FEFA41EC1A0B3B
:103E50009FED510B51EC1B0B53EC102B04F0F4FABB
:103E600041EC1B0B9FED4E0B53EC102B9DED0C0BFF
:103E700051EC100B04F0E8FA53EC1B2B04F03AF869
:103E800041EC100B4848784400EBC40090ED001B57
:103E900051EC100B53EC112B04F02CF841EC1B0BE4
:103EA000384604F06AFACDE9080153EC1B2B51ECBB
:103EB0001A0B04F01FF841EC100B3C48784400EB5F
:103EC000C40090ED00CB51EC100B53EC1C2B04F014
:103ED00011F89DED081B53EC112B04F00BF8069024
:103EE000CDE906519DED080B53EC102B9DED060B13
:103EF00051EC100B04F0B4FC53EC1C2B04F0B0FCA0
:103F000053EC1A2B04F0ACFC53EC1B2B04F0D0FB4D
:103F100041EC100B9DED261B53EC102B8DED001B7F
:103F200000959DED260B51EC100B04F08DFA9DEDE4
:103F3000000B41EC1A0B53EC102B9DED260B51ECB2
:103F4000100B04F08DFC9DED061B53EC112B2FE0A4
:103F5000000000604715F73FFE822B654715F73FCD
:103F600044DF5DF80BAE543E00000000000040430B
:103F70008E9803007AB60B0092640000C0640000C3
:103F8000CA630000000000000000000000000840BC
:103F9000000000E009C7EE3FFD033ADC09C7EE3F31
:103FA000F5015B14E02F3EBE566200001062000077
:103FB00004F04AFA53EC1A2B03F09CFF9DED060B1C
:103FC00041EC1A0B53EC102B9DED000B51EC100B38
:103FD00004F03AFACDE90C019DED0C0B51EC1A0BF3
:103FE00053EC102B03F086FFCDE902010C46AA49E1
:103FF0008C422FDB611A084318D19DED0C0B53EC5A
:10400000102B9DED020B51EC100B04F029FC41EC40
:104010001B0B9FEDA30B51EC1A0B53EC102B03F071
:1040200069FF53EC1B2B04F00DFB2DD20220FCF793
:10403000BFFA00F055FE10EE901A18EE900A8DEDC2
:10404000020B8DED008B61F31E0003909DED020BC2
:10405000FFF7BEBB944A24F00041914214D3934928
:10406000214408437FF4EFAC9DED0C0B53EC102B77
:104070009DED020B51EC100B04F0F2FB53EC1A2BEC
:1040800004F0E0FA7FF6DFAC24F000408849894A6A
:10409000002601EB205182422BDA481C4FF480119C
:1040A00021FA00F02044844AC0F30A517A44A1F274
:1040B000FF3192ED000B814A8DED080BCA4020EADA
:1040C0000202C0F3130040F48010C1F1140120FA81
:1040D00001F60992002CB8BF76429DED080B53EC17
:1040E000102B9DED0C0B51EC100B04F0B9FBCDE93E
:1040F0000C019DED0C0B51EC1A0B53EC102B03F043
:10410000F9FE9FED6F0B0890CDE9085153EC102B91
:104110009DED080B51EC100B04F096F941EC1B0BD4
:104120009FED690B53EC102B9DED080B51EC100B20
:1041300004F08AF99DED0C0B41EC1C0B53EC102B99
:104140009DED080B51EC100B04F08AFB53EC1A2B7D
:1041500004F0AEFA9FED5E1B53EC112B04F074F9E2
:1041600053EC1C2B03F0C6FE41EC1A0B51EC1B0B5D
:1041700053EC1A2B03F0BEFECDE902019DED020BBC
:1041800053EC1B2B51EC100B04F06AFB53EC1A2B75
:1041900004F08EFA9DED020B41EC1A0B53EC102B40
:1041A00051EC100B04F050F9CDE908014A489DED9F
:1041B000080B0521784400F033FB9DED081B51EC02
:1041C000100B53EC112B04F03FF99DED021B53EC47
:1041D000112B04F06DFACDE906019DED020B53ECB5
:1041E0001A2B51EC100B04F02FF953EC1A2B03F09F
:1041F00081FE9FED3B0B41EC1A0B53EC102B9DED18
:10420000060B51EC100B04F02BFB9DED060B41EC63
:104210001B0B53EC102B9DED020B51EC100B04F01B
:1042200013F953EC1B2B03F021FF53EC1A2B04F072
:1042300017FB9DED021B53EC112B04F011FB53EC0B
:10424000192B04F035FACDE9020101EB06500115F6
:104250000029C8BF039015DC9DED020B324651ECDE
:10426000100B04F094FCFFF7FEF9042808BF00F0DF
:1042700047FD32469DED020B51EC100B04F087FC1C
:10428000CDE902019DED020B51EC180B53EC102B04
:1042900004F0DAF8FFF73ABB00009040000000009D
:1042A000FE822B654715973C00CC904000346F3F51
:1042B00001FCFFFF0000E03F98600000FFFF0F00DF
:1042C00000000000432EE63F396CA80C615C20BE64
:1042D000EF39FAFE422EE63F685F00000000000062
:1042E000000000000000004000B52DED048BB0EE92
:1042F000409AF0EE609A83B051EC190B04F0E4F9A7
:1043000041EC180B18EE100A18EE901A8DED008B88
:10431000002818BF0120084320F00040C0F17F6052
:1043200000F1E040C00F14D019EE101A19EE900AF7
:104330008DED009B002918BF0121084320F00040AB
:10434000C0F17F6000F1E040C00F04BF0120FCF726
:104350002FF9B0EE480A03B0F0EE680ABDEC048B0A
:1043600000BD00000000000010B51D499FED1A1BA4
:104370002DED020B84B0059820F000408842DCBF90
:1043800001209DED040B21DD1649884209D10498D6
:1043900040B94FF00100FCF70BF900F091FC06B0BA
:1043A00010BD05DB9DED040B00F076FC06B010BDE2
:1043B00068469DED040B00F017F800F001000121A4
:1043C000A1EB40009DED021B9DED000B00F0A4FA57
:1043D00006B010BD0000000000000000000000005A
:1043E000FB21E93F0000F07F2DE9F14F04462DED60
:1043F000020B2DED088B8AB09FEDE70B80ED020BD1
:10440000139EE74826F0004585420ADC9DED120B1D
:10441000002084ED000B0AB0BDEC088B03B0BDE8B2
:10442000F08FE0489FEDE0AB9FEDE1BBA84247DD98
:10443000E14F9FEDE39B9FEDE48B9DED120B53EC61
:104440001A2B51EC100B002E1CDD04F009FA41EC84
:10445000100BBD4208D053EC1B2B51EC100B04F099
:10446000FFF9C4E900010BE053EC192B51EC100BE0
:1044700004F0F6F953EC182B04F0F2F9C4E900014A
:104480000120C8E703F036FD41EC100BBD4208D017
:1044900053EC1B2B51EC100B03F02CFDC4E9000175
:1044A0000BE053EC192B51EC100B03F023FD53ECF4
:1044B000182B03F01FFDC4E900014FF0FF30AAE7FD
:1044C000C348A84279DB9DED120B51EC100B00F0B4
:1044D00059FD41EC180B9FEDC00B53EC102B03F072
:1044E000B3FF9FEDBF1B53EC112B03F003FD03F053
:1044F00015FF074603F041FF41EC190B53EC1A2B53
:1045000003F0A2FF53EC182B04F0D2F841EC180B87
:1045100053EC1B2B51EC190B03F096FFDFF8C8A2EC
:1045200041EC100B4FEA15580125FA4453EC102BBF
:1045300051EC180B04F094F9032DC4E900013DD0AF
:10454000C1F30A5005EB4511A8EB00001139814277
:1045500034DA0AEB051BB0EE48AA9BED000BF0EE37
:1045600068AA53EC102B51EC190B03F06DFF41ECD2
:104570001B0B51EC1A0B53EC1B2B04F071F941ECA3
:10458000180B51EC1A0B53EC182B04F069F953EC8F
:104590001B2B04F065F99BED020B41EC1A0B53EC5D
:1045A000102B51EC190B03F04FFF53EC1A2B04F0B6
:1045B00057F941EC100B6D1CB8E70EE0002EA8BFB8
:1045C0003846BFF628AF94ED000B51EC100B03F00A
:1045D00053FCC4E9000178421DE7C6F3130040F420
:1045E000801EC6F30A50A0F2F530471100F01F05F7
:1045F000C5F12000DDF848B0089000200690079033
:104600000520EC467949002D07EB0002794408BFEC
:1046100051F8221009D051F8223001EB8201AB4051
:104620004A68089922FA01F11943A1FB0E26A1FB61
:104630000B131A449A4234BF0123002303EB0608EC
:104640000CEB8003D3E901A60E448E4234BF012156
:10465000002192448A4411B1924502D903E0924567
:1046600001D2012100E00021C3E901A641444CF838
:104670002010011EA0F10100C4DC029800F10050DE
:10468000850F0298DDE903678000DDF8148003F0F0
:1046900074FE41EC1A0B304603F086FE9FED541B6E
:1046A00053EC112B03F0D0FE41EC1B0B384603F00A
:1046B0007BFE9FED511B53EC112B03F0C5FE41EC2B
:1046C000180B404603F070FE9FED4D1B53EC112B71
:1046D00003F0BAFE41EC190B51EC180B53EC192BFB
:1046E00003F008FC53EC1B2B03F004FC53EC1A2BD7
:1046F00003F000FCCDE90801002008909DED080BB7
:1047000053EC1A2B51EC100B04F0AAF853EC1B2BB2
:1047100004F0A6F853EC182B04F0A2F853EC192B74
:1047200003F0C6FF9FED381B53EC112B03F08CFEFA
:104730009FED370B41EC180B53EC102B9DED080B44
:1047400051EC100B03F080FE53EC182B03F0D2FB5E
:104750009FED310B41EC180B53EC102B9DED080B2A
:1047600051EC100B03F070FE53EC182B03F0C2FB5E
:1047700041EC100B139810F0004F06D06D4251EC35
:10478000100B03F079FB41EC100B284684ED000B75
:1047900041E60000000000000000000000000000F2
:1047A000FB21E93F7CD9024000004054FB21F93F46
:1047B0003163621A61B4D03DFB21F93F0000000073
:1047C0000000601A61B4D03D7370032E8A19A33BB8
:1047D000FB2139410000000083C8C96D305FE43F10
:1047E000000000000000E03F225C0000705B000061
:1047F000000000000000103E000000000000103C1F
:10480000000000000000103A182D4454FB21F93D2F
:104810003326A611460B113C00000054FB21F93D44
:1048200070B504462DED028B4D1E00EBC500B0EEB9
:10483000408AF0EE608A90ED000B35F0060017D04C
:1048400053EC182B51EC100B03F0FEFD41EC100B58
:104850006D1E04EBC50090ED001B51EC100B53ECEA
:10486000112B03F047FB41EC100B35F00600E7D1AC
:10487000022D36D0042D1CD0062D1CBFBDEC028BA2
:1048800070BD53EC182B51EC100B03F0DDFD94EDD3
:104890000A1B53EC112B03F02DFB53EC182B03F0E8
:1048A000D3FD94ED081B53EC112B03F023FB41ECDB
:1048B000100B53EC182B51EC100B03F0C5FD94EDCD
:1048C000061B53EC112B03F015FB53EC182B03F0D4
:1048D000BBFD94ED040B53EC102B03F00BFB41ECF0
:1048E000100B53EC182B51EC100B03F0ADFD94EDB5
:1048F000021B53EC112B03F0FDFA53EC182B03F0C1
:10490000A3FD94ED001B53EC112B03F0F3FABDEC67
:10491000028B41EC100B70BDF1B506462DED040B7A
:10492000BD482DED0C8B8AB0B0EE418AF0EE618A65
:10493000179D25F000449FEDBABB9FEDBBCB844291
:1049400008DA9DED160B51EC100B03F0E7FC002884
:1049500000F0E980B64FA74231DC002D0DDA9DED65
:10496000160B51EC100B03F087FACDE9160151EC50
:10497000180B03F081FA41EC180B9FEDAF0B53ECD1
:10498000102B9DED160B51EC100B03F091FE53EC28
:10499000182B9FEDAB0BCDE9040151EC100B03F08C
:1049A0005FFF41EC100B53EC102B9DED040B51EC11
:1049B000100B03F09FFA9FEDA48BCDE916019DED3E
:1049C000160B53EC102B51EC100B03F03DFDCDE911
:1049D00004019DED040B53EC102B51EC100B03F074
:1049E00033FD41EC190B9A480621B0EE490AF0EE6E
:1049F000690A7844FFF714FF9648B0EE40DAF0EE0B
:104A000060DAB0EE490AF0EE690A06217844FFF751
:104A100007FF9DED041B51EC100B53EC112B03F021
:104A200013FD9DED040B41EC1A0B53EC102B9DED87
:104A3000160B51EC100B03F007FD41EC190B53EC76
:104A40001A2B51EC1D0B03F055FA53EC192B03F004
:104A5000FBFC53EC182B03F04DFA9DED041B53ECBB
:104A6000112B03F0F1FC53EC182B03F043FA41EC4B
:104A7000180B9FED790B51EC190B53EC102B03F035
:104A8000E3FC53EC182B03F035FA41EC190B9DEDC8
:104A9000160B53EC192B51EC100B03F02BFA41ECD5
:104AA000180BA74269DC304603F067FC41EC1A0B97
:104AB00051EC180B53EC1A2B03F01CFA41EC1B0BB6
:104AC00053EC182B51EC180B03F0BEFC53EC1B2BD2
:104AD00003F0CCFA53EC192B03F0C2FE9DED161B2C
:104AE00053EC112B03F0E4FD9FED5D1B53EC112BF8
:104AF00003F0AAFC53EC1A2B03F0DAFD41EC180B7F
:104B0000022000EAA570C0F1010003F036FC53EC6E
:104B1000182B03F099FC00BF41EC100B0AB0BDEC60
:104B20000C8B05B0F0BD711C1698214308430CD0C6
:104B30009DED160B012E1CBF53EC102B51EC1C0BE2
:104B400010D000BF03F092FAE6E79DED160B51EC92
:104B5000100B00F017FA41EC100B51EC1B0B53EC4F
:104B6000102BEFE751EC100BFEF77DFD042808BF7A
:104B700000F0C6F89DED160BD0E7012E04BFB0EE95
:104B8000480AF0EE680AC9D08DED048B0024049425
:104B90009DED040B53EC102B9DED160B51EC100BFF
:104BA00003F086FD53EC192B03F082FD41EC190B49
:104BB00053EC182B51EC1C0B03F058FA41EC180B7A
:104BC0008DED008B00949DED040B53EC102B9DEDAF
:104BD000000B51EC100B03F037FC53EC1B2B03F0D4
:104BE00089F99DED000B41EC1A0B53EC192B51EC9C
:104BF000100B03F029FC53EC1A2B03F07BF953EC58
:104C0000182B03F021FC9DED001B53EC112B03F03E
:104C100071F981E7000000000000303E0000000054
:104C2000000000000000F03F000000000000F0BFA6
:104C30002894E53F00000000182D4454FB21E93F73
:104C4000075C143326A6813C000000000000000031
:104C50002258000038580000635555555555D53F2A
:104C600000000000000000409FED070B10B553EC62
:104C7000102B9FED070B51EC100B03F0F7F941ECF3
:104C8000100B10BD0000000000000000000000003C
:104C9000000000000000F03F10B553EC102B51EC69
:104CA000100B03F027F941EC100B10BD10B553ECBD
:104CB000112B51EC100B03F01DF941EC100B10BD42
:104CC0009FED050B10B553EC102B51EC100B03F0BE
:104CD000CDF941EC100B10BD0000000000000000F9
:104CE0009FED050B10B553EC102B51EC100B03F09E
:104CF000ABFB41EC100B10BD000000000000007089
:104D00009FED050B10B553EC102B51EC100B03F07D
:104D10009BFB41EC100B10BD0000000000000010D8
:104D20007047000008B500F04DF9184D00901421AF
:104D3000684602F09FF8287820B1FDF713FDFCF7D4
:104D4000C9FBF4E7124800780028F0D00E20FCF7E9
:104D50008BFC104C60610420FCF786FCE0610520B0
:104D6000FCF782FCA06100EBC001626901EB00115D
:104D700002EB8106E169C72303FB01631044084489
:104D800093FBF0F0C4E90803D1E700001401002010
:104D90001501002018000020F0B58DB0012105207C
:104DA000FDF74EFC01210E023046FDF76DFC03209D
:104DB0008DF80400244F1025002400958DF807403D
:104DC00069463846FCF702FC009501258DF8045031
:104DD0008DF806408DF805408DF8075069461B4850
:104DE000FCF7F4FB8DF8045020208DF8064000906D
:104DF0008DF805408DF8075069463846FCF7E6FB0C
:104E000001213046FDF728FC00213046FDF724FC47
:104E1000089428040B94CDE9090408A8FBF706FDC3
:104E20008DF80C4002948DF80D4004940694084CC3
:104E30008DF81C5002A92046FBF724FD01212046D5
:104E4000FBF7EAFC0DB0F0BD000002400008024094
:104E50000020014010B504460420FDF74FFF0A482A
:104E60004FF47A71047014FB01F1012242804FF07B
:104E7000E020026942F0020202614161016941F0F1
:104E80000101016110BD00007400002070B50446EE
:104E900002F096FD01280CD0094D6888844203D3A6
:104EA000B4FBF0F001F0B0FF6888B4FBF0F100FB58
:104EB00011444FF47A706043BDE8704000F002B8CE
:104EC0007400002070B54FF0E02500216C69094A9C
:104ED000AB6912785043AA699A42FCD002D2A3EB84
:104EE000020302E0A4EB0206334419441346814254
:104EF000F1D370BD7400002030B58DB001210520C4
:104F0000FDF7C2FB01210802FDF7BEFB10200325BF
:104F100006908DF81C5000248DF81F4006A91648F5
:104F2000FCF754FB302006908DF81C508DF81F4084
:104F300006A91248FCF74AFBFBF78EFC4FF48030C1
:104F4000CDE908400A9408A80B94FBF76FFC8DF894
:104F5000044000948DF80540029404940120084C0C
:104F60008DF8140069462046FBF78CFC0121204691
:104F7000FBF752FC0DB030BD0008024000000240BB
:104F80000020014082B0CDE9000121F000400190F5
:104F90009DED000B02B051EC100B7047B5EEC00A4E
:104FA000F1EE10FA01DAB1EE400A704704490A88BE
:104FB0005206FCD5024AC1B2121D11807047000092
:104FC0000044004010B502F0FBFC012803D0BDE80E
:104FD000104002F003BD0148406810BD740000207D
:104FE000054C064DD4F8B002C043C4F8B00228689E
:104FF00001F00AFFF6E700000000404264000020D4
:105000001CB501F05DFC07490120CDE90001020259
:10501000002305A1074802F0A7FC02F0ABF800202E
:105020001CBD00000000002073746172745F746125
:10503000736B000015680008002800DA40427047D2
:105040000346012000E05843491EC9B2FBD2704715
:105050002DE9F04FFA4C4FF4AD702DED028B81B07D
:1050600020600A210920FCF7CDFD216890FBF1F7B3
:10507000052F00DD0527F34890ED000ADFEDF20A69
:10508000F248F44D20EE200ADFF8CCA3F34EBDEE3B
:10509000C00A80ED050A0169491C0161EC480078ED
:1050A0009FEDEF8ADFEDEF8ADFF8BC83DFF8BC937A
:1050B000DFF8BCB30C24002875D0FDF77FFAEDA211
:1050C0000A210020FDF75AFAED48009405230288D2
:1050D0000A212820FDF716FA062F0BD2DFE807F089
:1050E0000305181A1C1EE7A200E0E8A20A215620B8
:1050F000FDF744FAE7A214210020FDF73FFAE84843
:1051000000940523028814215A20FDF7FBF95AE187
:10511000E4A2EBE7E5A2E9E7E6A2E7E7E7A2E5E735
:10512000BCEEC00A05231E2110EE102A1920FDF73F
:10513000E9F9E4A21E213C20FDF720FA9BED020ACA
:105140005F46B5EEC00AF1EE10FA0AD2DEA21E21C9
:105150004B20FDF713FA009497ED020A20EE080A9F
:1051600009E0DAA21E214B20FDF708FA009497ED22
:10517000020A20EE280A05231E215520BCEEC00A93
:1051800010EE102AFDF7BEF999F8000000287CD037
:105190000428FCD0022844D0012858D0032875D018
:1051A0000528FCD0DBE3AEE0C7A228210F20FDF7E5
:1051B000E5F9009495ED020A20EE080A09E0C3A281
:1051C00028210F20FDF7DAF9009495ED020A20EE70
:1051D000280A052328211920BCEEC00A10EE102A47
:1051E000FDF790F9BAA228213C20FDF7C7F998ED08
:1051F000020A4546B5EEC00AF1EE10FA7ED2B2A21E
:1052000028214B20FDF7BAF9009495ED020A20EE13
:10521000080A052328215520BCEEC00A10EE102AEA
:10522000F0E3ACA228210020FDF7A8F9DAF800008D
:105230005546002874DAA4A228213C20FDF79EF9E7
:10524000009428680423424228215020DAE3A3A2D4
:1052500028210020FDF792F995ED020AB5EEC00A6B
:10526000F1EE10FA7ED298A228210F20FDF786F9E0
:10527000009495ED020A20EE080A05232821192042
:10528000BCEEC00A10EE102AE6E3BFE056E18EA2A3
:1052900028211420FDF772F9009496ED010AB1EE71
:1052A000400A07E089A228211420FDF767F900943D
:1052B00096ED010A04232821BCEEC00A1E2010EE40
:1052C000102AFDF71FF986A228213C20FDF756F988
:1052D00097ED010AB5EEC00AF1EE10FA70D27AA28B
:1052E00028215020FDF74AF9009497ED010AB1EE0C
:1052F000400ABCEEC00A10EE102A00E094E004233D
:1053000028215A20A8E377480078002872D0062F79
:105310000CD2DFE807F003064F51535659A201E0C3
:10532000F6E05AA200210846FDF728F96EA20021F6
:105330004120FDF723F96D48009405230268002100
:105340005020FDF7DFF86AA20A210020FDF716F9C8
:1053500068480094052302680A211420FDF7D2F85A
:1053600065A200E0DEE00A213C20FDF707F9634872
:105370000094052302680A215020FDF7C3F860A2BB
:1053800014210020FDF7FAF85F4800940523026815
:1053900014212820FDF7B6F899F8000098B10428E8
:1053A00011D002280FD003280DD005280BD00128DA
:1053B00009D053E33BA2B5E73CA2B3E73DA2B1E776
:1053C000CAE03EA2AEE751A21E210020FDF7D6F8AA
:1053D00096ED020AB5EEC00AF1EE10FA0BD23AA22F
:1053E0001E210F20FDF7CAF8009496ED020A20EE68
:1053F000080A95E6BAE035A21E210F20FDF7BEF897
:10540000009496ED020A20EE280A89E633A22821AC
:105410000020FDF7B3F895ED020AB5EEC00AF1EEF3
:1054200010FABFF4CCAEBFE628A228214B20FDF72E
:10543000A5F8009495ED020A20EE280AE9E600009E
:1054400018010020400000200000C842A0010020F8
:10545000140100206C5A00201C010020445A002036
:1054600000007AC400007A44805A00200501002020
:10547000585A00204D656469616E203A00000000B2
:10548000260000204D656320000000004F6D6E690E
:10549000000000005468726573686F6C64203A0005
:1054A00028000020416B6D20000000004469666602
:1054B00000000000345744200000000054616E6B6F
:1054C00000000000423A00002D0000002B00000008
:1054D000443A0000534552564F3A0000433A000008
:1054E0004D420000150100204C3A00002C00002025
:1054F0004D3A000030000020523A000034000020F5
:1055000044657669613A000038000020413A0000A5
:10551000AFF2480228213C20FDF730F80094042324
:105520002A6891E6AFF25C0228210F20FDF726F8E9
:10553000009495ED020A20EE280A9EE6FEA228219C
:105540000020FDF71BF896ED010AB5EEC00AF1EE5A
:1055500010FABFF4A7AE9AE6AFF2900228215020CD
:10556000FDF70CF8009497ED010AC2E6F3480078C5
:10557000002875D0062F0DD2DFE807F003061A1DAC
:105580002023AFF2001201E0AFF200120021084622
:10559000FCF7F4FF99F80000B0B1012814D00428FA
:1055A00012D002285DD003285BD0052859D03DE0F9
:1055B000AFF21012EAE7AFF20C12E7E7AFF20C120B
:1055C000E4E7AFF20812E1E7DDA24CE0BCEEC00A6E
:1055D00005230A2110EE102A1420FCF793FF96ED04
:1055E000000AB5EEC00AF1EE10FA0BD2AFF22812A3
:1055F0000A213C20FCF7C2FF009496ED000A20EE41
:10560000080A0AE0AFF23C120A213C20FCF7B6FF80
:10561000009496ED000A20EE280A05230A214B206B
:10562000BCEEC00A10EE102AFCF76CFFAFF2381285
:1056300014210020FCF7A2FF9BED020A5F46B5EEA5
:10564000C00AF1EE10FA31D2AFF2841214210F2009
:10565000FCF794FF009497ED020A20EE080A30E070
:1056600004E2AFF27C120A210020FCF787FF96EDDE
:10567000020AB5EEC00AF1EE10FA0BD2AFF2B81280
:105680000A210F20FCF77AFF009496ED020A20EE23
:10569000080A9BE7AFF2CC120A210F20FCF76EFF3D
:1056A000009496ED020A20EE280A8FE7AFF2E4128A
:1056B00014210F20FCF762FF009497ED020A20EE00
:1056C000280A142105230846BCEEC00A10EE102A51
:1056D000FCF718FF97ED000AB5EEC00AF1EE10FADC
:1056E0000BD2AFF21C2214213C20FCF747FF0094A0
:1056F00097ED000A20EE080A0AE0AFF230221421EA
:105700003C20FCF73BFF009497ED000A20EE280AAE
:10571000052314214B20BCEEC00A10EE102AFCF722
:10572000F1FE99F8000018B1012801D0042871D1C8
:1057300084A214210020FCF721FF97ED020AB5EEA8
:10574000C00AF1EE10FA0BD2AFF2842214210F201E
:10575000FCF714FF009497ED020A20EE080A0AE015
:10576000AFF2982214210F20FCF708FF009497ED68
:10577000020A20EE280A142105230846BCEEC00ABE
:1057800010EE102AFCF7BEFE97ED000AB5EEC00A37
:10579000F1EE10FA0BD2AFF2D02214213C20FCF72C
:1057A000EDFE009497ED000A20EE080A0AE0AFF241
:1057B000E42214213C20FCF7E1FE009497ED000A5E
:1057C00020EE280A052314214B20BCEEC00A10EE5F
:1057D000102AFCF797FE99F8000018B1012801D0B3
:1057E000042853D158A21E210020FCF7C7FE95EDD6
:1057F000020AB5EEC00AF1EE10FA0CD2AFF238325E
:105800001E210F20FCF7BAFE009495ED020A20EE4F
:10581000080A0BE03AE0AFF24C321E210F20FCF7F1
:10582000ADFE009495ED020A20EE280A05231E2104
:105830001420BCEEC00A10EE102AFCF763FE95EDB2
:10584000000AB5EEC00AF1EE10FA0BD2AFF28832C0
:105850001E213C20FCF792FE009495ED000A20EEFC
:10586000080A0AE0AFF29C321E213C20FCF786FEBB
:10587000009495ED000A20EE280A05231E214B20F6
:10588000BCEEC00A10EE102AFCF73CFE99F80000AE
:10589000022804D0032824D0052822D04BE0AFF200
:1058A000CC321E210020FCF769FEDAF800005546D4
:1058B00000280ADAAFF2F0321E213C20FCF75EFE2F
:1058C000009428680423424208E0AFF200421E21FF
:1058D0003C20FCF753FE00942A6804231E2150202C
:1058E00027E015A21E210020FCF748FE96ED010AD4
:1058F000B5EEC00AF1EE10FA0BD2AFF234421E211F
:105900002820FCF73BFE009496ED010AB1EE400A18
:1059100008E0AFF248421E212820FCF72FFE009439
:1059200096ED010A04231E21BCEEC00A322010EEBF
:10593000102AFCF7E7FD09E04D41000016010020A8
:1059400041000000420000004300000099F8000000
:1059500030B1042804D0032855D0052853D07DE069
:1059600069A228210020FCF709FE98ED020A4546AD
:10597000B5EEC00AF1EE10FA0BD2AFF2B442282114
:105980000F20FCF7FBFD009495ED020A20EE080ABB
:105990000AE0AFF2C84228210F20FCF7EFFD009487
:1059A00095ED020A20EE280A052328211420BCEEDA
:1059B000C00A10EE102AFCF7A5FD95ED000AB5EE21
:1059C000C00AF1EE10FA0BD2AFF2045228213C20AB
:1059D000FCF7D4FD009495ED000A20EE080A0AE0D9
:1059E000AFF2185228213C20FCF7C8FD009495ED39
:1059F000000A20EE280A052328214B20BCEEC00A0D
:105A000010EE102A28E0AFF2285228210020FCF7DF
:105A1000B5FD97ED010AB5EEC00AF1EE10FA0BD212
:105A2000AFF25C5228210846FCF7A8FD009497EDE0
:105A3000010AB1EE400A08E0AFF270522821084690
:105A4000FCF79CFD009497ED010A04232821BCEE8D
:105A5000C00A322010EE102AFCF754FD2B480078C3
:105A600001280ED02A48007801280CD029A2322122
:105A70000020FCF783FD2948D0F80C02012804D04F
:105A800006E027A2F3E728A2F1E729480078C8B387
:105A900028A232212D20FCF771FD274E6425022318
:105AA0007069322190FBF5F24B200094FCF72AFD3F
:105AB00022A232215820FCF761FD7069022390FB7D
:105AC000F5F105FB1102322162200094FCF71AFD6A
:105AD0001BA232216E20FCF751FD706990FBF5F19D
