:020000040800F2
:100000008070002031030008552E0008A523000849
:10001000612B0008C5100008454B000800000000D7
:10002000000000000000000000000000790200084D
:100030002911000800000000CD020008BD3F0008A3
:100040004B0300084B0300084B0300084B03000858
:100050004B0300084B0300084B0300084B03000848
:100060004B0300084B0300084B0300084B03000838
:100070004B0300084B0300084B0300084B03000828
:100080004B0300084B0300084B0300084B03000818
:100090004B0300084B0300084B0300084B03000808
:1000A0004B0300084B0300084B0300084B030008F8
:1000B00091400008A1400008B54000084B0300082B
:1000C0004B0300084B0300084B0300084B030008D8
:1000D0004B0300085D4600087D4600084B030008FE
:1000E0004B0300084B0300084B0300084B030008B8
:1000F0004B0300084B0300084B0300084B030008A8
:100100004B0300084B030008C94000084B030008DC
:100110004B030008254500084B0300084B0300086B
:100120004B0300084B0300084B0300084B03000877
:100130004B0300084B0300084B0300084B03000867
:100140004B0300084B0300084B0300084B03000857
:100150004B0300084B0300084B0300084B03000847
:100160004B0300084B0300084B0300084B03000837
:100170004B0300084B0300084B0300084B03000827
:100180004B0300084B03000800F002F800F064F88D
:100190000AA090E8000C82448344AAF10107DA45E2
:1001A00001D100F059F8AFF2090EBAE80F0013F0D0
:1001B000010F18BFFB1A43F001031847E4B6000013
:1001C00004B700000A444FF0000C10F8013B13F094
:1001D000070408BF10F8014B1D1108BF10F8015BA0
:1001E000641E05D010F8016B641E01F8016BF9D193
:1001F00013F0080F1EBF10F8014BAD1C0C1B09D1EA
:100200006D1E58BF01F801CBFAD505E014F8016B5B
:1002100001F8016B6D1EF9D59142D6D370470000ED
:100220000023002400250026103A28BF78C1FBD8FF
:10023000520728BF30C148BF0B607047642900F0E7
:100240000381732900F06482002070471FB509F014
:1002500074FF1FBD10B510BD00F0AEFA1146FFF7D8
:10026000F5FF06F081FA00F0CCFA03B4FFF7F2FFD5
:1002700003BC05F0B9FF00002A4B19680868B0E814
:10028000F04F80F30988BFF36F8F4FF0000080F3C9
:10029000118870470000000006480068006880F37D
:1002A000088862B661B6BFF34F8FBFF36F8F00DF70
:1002B00000BF00BF08ED00E0DFF80C00016841F46A
:1002C00070010160704700BF88ED00E0EFF3098026
:1002D000BFF36F8F134B1A681EF0100F08BF20ED8D
:1002E000108A20E9F04F106008B44FF0500080F3FE
:1002F0001188BFF34F8FBFF36F8F08F09FFA4FF055
:10030000000080F3118808BC19680868B0E8F04F55
:100310001EF0100F08BFB0EC108A80F30988BFF3FD
:100320006F8F70473C010020EFF30580704700009D
:100330000948804709480047FEE7FEE7FEE7FEE779
:10034000FEE7FEE7FEE7FEE7FEE7FEE704480549B5
:10035000054A064B70470000D13F0008890100089C
:10036000806A002080700020806C0020806C00205B
:10037000704700000FB4044910B503AA029800F0BA
:10038000CBF910BC5DF814FB280100202DE9F041E9
:100390000E460446002020622046E168884730B3BC
:1003A000252805D0D4E901219047206A401CF2E7B6
:1003B000E168204600278847050018D0A5F14100D4
:1003C000192802D820354FF40067324629462046C6
:1003D0002760FFF733FF40B1012804D0F61D26F057
:1003E00007060836D8E7361DD6E72846DAE7206A3A
:1003F000BDE8F08170B50C460546012A05D0287885
:10040000800600D5EA69002302E0012305E05B1CB9
:10041000934202D2E05C0028F9D1A869E618C01A1C
:10042000A861286A184428622846AFF3008004E0D7
:10043000D5E9012114F8010B9047B442F8D32846BE
:10044000AFF3008070BD00002DE9F04106460024A6
:1004500010687529314616A510D0AFF3008000282A
:1004600002DA404213A507E031688A0701D512A5D8
:1004700002E0490704D511A5012401E0AFF3008093
:1004800000210A2206F1240709E0B0FBF2FCB0FBD0
:10049000F2F302FB1C00303078541846491C002847
:1004A000F3D123462A463046BDE8F04100F0ADB80E
:1004B000000000002D0000002B00000020000000C4
:1004C000032A40F2308010F0030C00F0158011F880
:1004D000013BBCF1020F624498BF11F801CB00F858
:1004E000013B38BF11F8013BA2F1040298BF00F8AC
:1004F00001CB38BF00F8013B11F0030300F01E816F
:10050000083AC0F0088051F8043B083A51F804CB8F
:10051000A0E80810F5E7121D5CBF51F8043B40F855
:10052000043BAFF30080D20724BF11F8013B11F860
:1005300001CB48BF11F8012B24BF00F8013B00F8A4
:1005400001CB48BF00F8012B704702F0FF0343EADC
:10055000032242EA024200F002B84FF000020429EE
:10056000C0F0128010F0030C00F01B80CCF1040CE2
:10057000BCF1020F18BF00F8012BA8BF20F8022B16
:10058000A1EB0C0100F00DB85FEAC17C24BF00F8BC
:10059000012B00F8012B48BF00F8012B70474FF0EA
:1005A000000200B5134694469646203922BFA0E8C3
:1005B0000C50A0E80C50B1F12001BFF4F7AF0907CF
:1005C00028BFA0E80C5048BF0CC05DF804EB8900C0
:1005D00028BF40F8042B08BF704748BF20F8022B03
:1005E00011F0804F18BF00F8012B7047704770471B
:1005F0007047704710B500F0D3F8006810BD10B513
:10060000044600F0CDF8046010BD2DE9F0470D461A
:1006100099469246044600F124080168880604D5EC
:10062000E06921F01001216000E00120A84201DD15
:10063000471B00E00027A1697A1902EB0900081A9C
:10064000A0612078C00602D42046AFF300800026C7
:1006500008E0D4E901211AF806009047206A401CFE
:10066000761C20624E45F4DB2078C0060AD5204671
:10067000AFF3008006E0D4E9012130209047206AE2
:10068000401C2062381EA7F10107F4DC07E0D4E922
:10069000012118F805009047206A401C2062281E9E
:1006A000A5F10105F3DC2046AFF3008020780006B9
:1006B00002D50220BDE8F0870120FBE701694A1C52
:1006C00002610878704700B58FB0CDE90131002193
:1006D000059105497944CDE9031011466846FFF7B5
:1006E00055FE0FB000BD0000E5FFFFFF10B54369E8
:1006F00013B1AFF3008001E0FFF77CFE012010BDD5
:10070000127800F124010A7000224A700122EDE7FC
:1007100011684FF0FF32E9E7074B70B50D467B4497
:10072000FFF7D1FF0446284600F03EF810B14FF025
:10073000FF3070BD204670BDF35F000010B5203A59
:10074000C0F00B80B1E81850203AA0E81850B1E88A
:100750001850A0E81850BFF4F5AF5FEA027C24BF40
:10076000B1E81850A0E8185044BF18C918C0BDE837
:1007700010405FEA827C24BF51F8043B40F8043B00
:1007800008BF7047D20728BF31F8023B48BF11F8B5
:10079000012B28BF20F8023B48BF00F8012B70470F
:1007A00000487047206A0020007B00F080007047FE
:1007B00000487047206A00207546FFF7F9FFAE46F3
:1007C00005006946534620F00700854618B020B55D
:1007D000FFF7BCFDBDE820404FF000064FF00007DA
:1007E0004FF000084FF0000B21F00701AC46ACE8D9
:1007F000C009ACE8C009ACE8C009ACE8C0098D4646
:1008000070470446AFF300802046FFF72EFD002915
:10081000816802D041F0010101E021F00101816015
:1008200070470000084B10B5D3F8042307490A406D
:10083000D0E900142143D0E902400443214311438D
:10084000C3F8041310BD000000200140E030FCFF9D
:1008500010B501210C02204603F068F82046BDE8DF
:100860001040002103F062B8C06C80B270470246AD
:10087000002012680A4200D00120704730B542685B
:100880000F4B0C791A400B6842EA04221343436071
:1008900082680C4B4D791A40D1E9034323438C689D
:1008A00044EA4504234313438360C26A097D22F46A
:1008B0007002491EC9B242EA0151C16230BD000056
:1008C000FFFEFFFCFDF7FFC070B5072609290AD916
:1008D000C568A1F10A0404EB4404A640B543A34053
:1008E0001D43C56007E0056901EB4104A640B5431F
:1008F000A3401D4305611F23072A09D2446B521EE2
:1009000002EB820293409C4391400C43446370BDD0
:100910000D2A09D2046BD21F02EB820293409C4342
:1009200091400C43046370BDC46A0D3A02EB82022D
:1009300093409C4391400C43C46270BD816841F078
:100940008041816070470000FEB58748D0ED000A05
:100950009FED861A9FED860A10EE810AF3EE0B0AD0
:1009600080EE201ABDEEC10A10EE103A642B00DDB5
:100970006423804890ED000ADFED7F0A20EE200A14
:10098000BDEEC00A10EE100A002800DA40427B4992
:1009900091ED000A20EE200ABDEEC00A10EE101AFA
:1009A000002900DA4942764C2278B2B10022764D15
:1009B0002270744C95ED000A2678BDEEC00A012E17
:1009C0000DD0002A77D003B0CBB2BDE8F040C2B260
:1009D00010EE101A6DA0FFF7CDBC0122E7E76F48BB
:1009E000007806281BD0052829D004283BD00328EE
:1009F00072D06B48D0ED000A6A48FDEEE00A10EEB6
:100A0000903AD0ED000AFDEEE00A10EE902A10EECA
:100A1000101A65A0FFF7AEFC00202070FEBD6648EE
:100A200090ED000A6548BDEEC00A10EE103A90ED58
:100A3000000A6348BDEEC00A10EE102A0EE06148BD
:100A400090ED000A6048BDEEC00A10EE103A90ED3D
:100A5000000A5E48BDEEC00A10EE102A90ED000AB2
:100A6000BDEEC00AD3E75A480078022813D0032805
:100A700022D0042831D0574890ED000A5648BDEEE8
:100A8000C00A10EE103A90ED000A5448BDEEC00ABC
:100A900010EE102AE2E7524890ED000A5148BDEEF0
:100AA000C00A10EE103A90ED000A4F48BDEEC00AA1
:100AB00010EE102AD2E74EE04C4890ED000A4C4868
:100AC000BDEEC00A10EE103A90ED000A4948BDEEA6
:100AD000C00A10EE102AC1E70FE0474890ED000A67
:100AE0004648BDEEC00A10EE103A90ED000A4448A8
:100AF000BDEEC00A10EE102AB0E7424890ED000AA1
:100B00004148FDEEC00A90ED000A4048BDEEC00A23
:100B100090ED001A3E48BDEEC11A8DED001A8DED24
:100B2000010ACDED020A90ED000A3A48BDEEC00A76
:100B300010EE103A90ED000A3748BDEEC00A10EEF4
:100B4000102A90ED000A35A0BDEEC00A10EE101A72
:100B5000FFF710FC60E7CAB2C1B2CDE9001235A0C0
:100B6000FFF708FCFEBD00004000002000007A44B2
:100B700000401C46A86900200000C842BC69002053
:100B8000AC02002033020020B40100207B42256427
:100B90003A25643A25647D240000000038020020D4
:100BA000EC010020E80100207B4325643A25643AEB
:100BB00025647D2400000000E4010020E001002005
:100BC00044020020DC010020D80100204002002067
:100BD000B1010020A00000209C000020980000200F
:100BE0008800002084000020800000207C0000207D
:100BF0007800002074000020940000209000002065
:100C00008C000020B8000020B4000020B0000020BC
:100C1000AC000020A8000020A40000207B43256435
:100C20003A25643A25643A25643A25643A25647D78
:100C3000240000007B4125643A25643A25643A2566
:100C4000643A25647D2400002DE9F0418CB0012137
:100C5000062002F02FFE4FF480780121404602F07A
:100C600059FE03251D4F01268DF81C5000240696C1
:100C70008DF81F4006A9384600F0A4FF0220069018
:100C80008DF81C508DF81F4006A9384600F09AFFD9
:100C90000121404602F04AFE0021404602F046FE95
:100CA000089430040B94CDE9090408A8FFF7BAFDB5
:100CB0008DF8044000948DF8054002940494084C8B
:100CC0008DF8146069462046FFF7D8FD01212046C3
:100CD000FFF79DFD0CB0BDE8F0810000000402406C
:100CE0000020014010B530EEC01A554C554984ED36
:100CF000161AD4ED181A71EE811A11EE900AC4ED8D
:100D0000181A9FED512A884202DD84ED182A08E066
:100D100011EE900A4D49884203D9DFED4D1AC4ED1A
:100D2000181A4C480078DFED4C1A454930EEC00ADD
:100D30000428D1ED192A30EE620A2FD0022846D0BD
:100D400003285DD005285BD0D4ED0A0A60EE810A45
:100D50009FED423AC0EE832AD4ED0C0A94ED183A86
:100D600060EE830A80EEA13AD4ED0B1A20EE210A40
:100D7000C0EE021A72EEC30A30EEE10A84ED170AE1
:100D8000374884ED191A90ED000ABDEEC00A10EE46
:100D9000100A03F0B5FB01284BD04EE0D4ED070A52
:100DA000D4ED182A20EE812AC2EE210A94ED092AF8
:100DB00022EE222AC2EE212A94ED082A20EE020A0F
:100DC00080EE212A70EEA20A30EE820AD6E7D4ED38
:100DD000040A94ED183A60EE812AC2EEA10AD4ED1D
:100DE000062A62EE832A82EEA13AD4ED051A20EE9D
:100DF000210AC0EE021A70EE830A30EEA10ABDE7A6
:100E0000D4ED010AD4ED182A20EE812ADFED150A6F
:100E1000C2EE201A94ED032A22EE222AC2EE202AE4
:100E200071EEA20AD4ED021A41EE800AC4ED170A4F
:100E3000A6E79FED0D0A84ED180A94ED170A10BD80
:100E40007000002000007A4400007A4400007AC458
:100E500000007AC4B10100200050C3470050C3C74E
:100E6000400000200000C842000000001CB505F052
:100E70005DFCDFF82C828B4D8B4EDFF830A2DFF863
:100E8000309240F6B83B002401900A2101A807F0F7
:100E900003FBD8F808004746584501DA401CB86003
:100EA00001F0A2F9322005F035FA012802D002281B
:100EB0001FD111E03879401CC0B23871062805D026
:100EC000052806D0062814D93C7112E005F0C8FBAD
:100ED0000FE005F0C1F90CE0387818B10020387047
:100EE00010B106E00120FAE74FF4E1617148FFF725
:100EF00056FBB8783979884207D0401CB87001F0A9
:100F0000E7FFB878062800D9BC703879062835D0B4
:100F1000002000F0D9F8387908B3012822D002283F
:100F200023D0032824D0042825D0062826D078787A
:100F3000401CC0B27870042823D000D97C705E4871
:100F400090ED000ABDEEC00A10EE100A03F0D8FAC8
:100F5000D8B100231A4619461846009467E000F0FD
:100F600099FEECE702F0ECF9E9E701F0B9FBE6E7FE
:100F700001F050FCE3E701F031FDE0E701F032F869
:100F8000DDE77C7000F06AFFD9E7D5ED020A95ED48
:100F9000000A01F009FA00EE100AB8EEC00A85ED69
:100FA000010AD6ED020A96ED000A01F03BFA00EEC6
:100FB000100A5746B8EEC00A86ED010ADAED020AB9
:100FC0009AED000A01F06CFA00EE100A4B46B8EEFA
:100FD000C00A87ED010AD9ED020A99ED000A01F075
:100FE0009DFA00EE100A44F27400B8EEC00A83EDD8
:100FF000010A01F06DFD314800780628BFF445AFC5
:10100000DFE800F003182E4C034C009493ED010A26
:10101000BDEEC00A10EE103A97ED010ABDEEC00A0F
:1010200010EE102A96ED010AB1EE400A29E002F016
:10103000DFFE2AE7009493ED010ABDEEC00A10EE30
:10104000103A97ED010ABDEEC00A10EE102A96ED97
:10105000010ABDEEC00A10EE101A95ED010A18E063
:1010600017480068009093ED010ABDEEC00A10EE2B
:10107000103A97ED010ABDEEC00A10EE102A96ED67
:10108000010ABDEEC00A10EE101A95ED010AB1EE8C
:10109000400ABDEEC00A10EE100AC8E70094E2E76D
:1010A00034020020A8690020BC690020D06900201B
:1010B000E46900203C0F002040000020B101002026
:1010C000F8010020FEE70000064B4FF4807128B1C4
:1010D000521C824205DB184600F0C2BD184600F0E3
:1010E000BDBD7047000002407CB50121084602F0FA
:1010F000E1FB01208DF8040000208DF8060003209C
:101100008DF805000220074D4FF480748DF807001C
:1011100000946946284600F055FD2146284600F017
:101120009DFD7CBD000002407047000070B5114875
:101130000021007801281AD10F4C104A00204FF0EE
:10114000937640F2BB2502EBC0035B682344B342B5
:1011500006D932F830305B1EAB4201D2491CC9B20D
:10116000401CC0B2E128EED309B1012070BD0020BF
:1011700070BD000034020020000090BD3C0F002034
:1011800010B530EEC00A274C274984ED1A0AD4ED79
:101190001C0A70EE800A10EE900AC4ED1C0A884208
:1011A00002DDDFED220A06E010EE900A20498842B7
:1011B00003D9DFED200AC4ED1C0AD4ED0D0A94ED2D
:1011C0001C2A1E4860EE801ADFED1B0A81EEA01A71
:1011D000D4ED0F1A61EE821A81EEA02AD4ED1D1A09
:1011E00070EE611A31EE021A94ED0E2A61EE821A47
:1011F00081EEA02A71EE020AC4ED1B0A84ED1D0ADD
:1012000090ED000ABDEEC00A10EE100A03F078F966
:10121000012803D19FED0A0A84ED1C0A94ED1B0AF4
:1012200010BD00007000002000007A4400007A44E5
:1012300000007AC400007AC40000C84240000020C8
:10124000000000000020401C1E28FCDB704700004E
:101250002DE9F041EF4BDFF8C083F04AF04DF14C3F
:10126000F14EF24F2DED0E8BF0EE418AB0EE408A3A
:10127000B0EE0CEAB8EE0CCAF6EE009A18789FEDC4
:10128000ECDBDFEDEDCA08B1012810D1B0EE681A31
:10129000B0EE480A02F0E6FDE84890ED008A90EDD5
:1012A000019AD0ED028A187868B3012852D0C0B2F2
:1012B00002287CD0032803D0042879D0052878D1CF
:1012C00092ED000AB0EE4E1A68EE800AB0EE480ABF
:1012D00000EEE90A00EEA98AF0EE4C0A85ED020A5A
:1012E00084ED028A06F055FE85ED020A94ED020AAD
:1012F000B0EE4E1AF0EE4C0A06F04BFE84ED020AF8
:10130000C6ED02CAB8E098ED000A92ED001A79EE37
:10131000080A30EE010A38EE491AF0EE601A48EE7B
:10132000C00A48EE801AC5ED020AB0EE602AF0EE5F
:10133000410A08EE801A48EEC00AB0EE420AC4ED37
:10134000020AC6ED021A87ED021AB0EE4E1AF0EE4E
:101350004C0A3BE1DFF8E882F0EE490A98ED000A1A
:1013600040EE280A20EE280A10EE100AC5ED020A07
:1013700008F072FE69EE29EA41EC1A0B1EEE900AA3
:1013800008F06AFE41EC1B0B18EE100A08F064FE30
:1013900041EC190BB0EE4D0AF0EE6D0A04F008FABC
:1013A0009FEDA81B51EC100B53EC112B02E069E0F0
:1013B000F2E063E008F05AFB53EC192B08F056FBFF
:1013C00053EC1B2B08F05EFD53EC1A2B08F0A4F82D
:1013D00008F070F8A06098ED000A20EE280A10EEE0
:1013E000100A08F039FE41EC190B1EEE900A08F0C5
:1013F00033FE41EC1A0B18EE100A08F02DFE41ECFA
:10140000180BB0EE4D0AF0EE6D0A04F0D1F99FED25
:101410008F1B51EC100B53EC112B08F027FB53ECF6
:10142000182B08F023FB53EC1A2B08F02BFD53EC80
:10143000192B08F071F808F03DF8B06095ED020A3C
:10144000B0EE4E1AF0EE4C0A06F0A3FD85ED020A4E
:1014500094ED020AB0EE4E1AF0EE4C0A06F099FD39
:1014600084ED020A96ED020AB0EE4E1AF0EE4C0A36
:1014700006F08FFD86ED020AC7ED02CABDEC0E8BA9
:10148000BDE8F0819FED73BA18EE900A08F0E4FD14
:1014900041EC100B04F0CCF99FED6F1ADFED6F0AF1
:1014A000B0EE680A06F075FD85ED028AF0EE408A1E
:1014B00084ED028A9FED6A0A28EE800A10EE100A77
:1014C00008F0CAFD41EC1A0B18EE900A08F0C4FDB2
:1014D00041EC100B9FED631B03F04EFB9FED631B74
:1014E00051EC100B53EC112B08F0C0FA41EC190B26
:1014F00018EE900A08F0B0FD41EC100BB0EE4D1A5A
:10150000F0EE6D1A03F038FB9FED5A1B51EC100BF7
:1015100053EC112B08F0AAFA53EC192B07F0FCFF3F
:1015200053EC1A2B08F0AEFC9FED541B53EC112B1F
:1015300007F0F2FF07F0BEFF00EE100ADFED510AE0
:1015400070EE600A9FED500A504BB0EE4E1A00EE5E
:101550008B0AF0EE4C0ABDEEC00A83ED000A95ED51
:10156000020A06F016FD85ED020A94ED020AB0EEBD
:101570004E1AF0EE4C0A06F00CFD84ED020AC6EDA0
:1015800002CAC7ED02CA40F698024FF448711868C3
:1015900006F00FFD186071E792ED000AD8ED000A21
:1015A000B0EE4E1A30EE200A60EE280AB0EE480A7D
:1015B00000EEE90A00EEA98AF0EE4C0A85ED020A77
:1015C00084ED020A86ED028A87ED028A06F0E1FCCC
:1015D00085ED020A94ED020AB0EE4E1AF0EE4C0AC6
:1015E00006F0D7FC84ED020A96ED020AB0EE4E1A20
:1015F000F0EE4C0A06F0CDFC86ED020A97ED020AE9
:10160000B0EE4E1AF0EE4C0A06F0C3FC87ED020A6B
:1016100034E70000B101002028020020240200204D
:10162000A8690020BC690020D0690020E46900207E
:101630000000000000000840000000009C6900203D
:101640002C020020000000000000E0BF00000000AD
:101650000000E03FD7231F440AD7A33E48E1FABE6B
:10166000E5D0E23F00000000000000400000000064
:10167000D34DF43F000000809318E4BF000000E069
:101680007A14FC3FD7A3E03F0080BB44F801002060
:101690001CB50121082002F00DF90820009000205F
:1016A0008DF8040003208DF8050001208DF8070057
:1016B0006946024800F086FA1CBD0000000C02409A
:1016C000F0B5012189B0084602F00CF90121032090
:1016D00002F0F0F803258DF8055002264FF4004083
:1016E0008DF8046001242B4F00908DF806408DF892
:1016F00007406946384600F065FA8DF805508DF8C8
:1017000004608DF806408DF807400820224C0090B8
:101710006946204600F056FA01220F21384600F0B3
:101720008DFA01220321204600F088FA02A802F077
:10173000DDFE00244FF6FF70ADF8084003907507FA
:10174000ADF81040ADF80A4002A9284602F090FE1C
:1017500000231A460321284602F0E2FC05A802F005
:101760004EFDADF81C4005A9284602F0F2FC01210F
:10177000284602F0BDFC01221146284602F047FD32
:101780000021284602F04AFE0121284602F0B3FC5F
:1017900009B0F0BD000002400004024030B589B03D
:1017A0000121022002F09EF80121022002F082F8BD
:1017B0003020039003208DF8110002208DF81000D6
:1017C00001208DF81200224C8DF8130003A9204649
:1017D00000F0F8F902220421204600F02FFA02223C
:1017E0000521204600F02AFA684602F07FFE002418
:1017F0004FF6FF70174DADF800400190ADF808406E
:10180000ADF802406946284602F032FE00231A462F
:101810000321284602F084FC05A802F0F0FCADF894
:101820001C4005A9284602F094FC0121284602F03C
:101830005FFC01221146284602F0E9FC00212846FF
:1018400002F0ECFD0121284602F055FC09B030BD44
:10185000000402400004004030B589B0012104209A
:1018600002F040F80121022002F024F8C020039089
:1018700003208DF8110002208DF8100001208DF852
:101880001200224C8DF8130003A9204600F09AF9AB
:1018900002220621204600F0D1F90222072120462B
:1018A00000F0CCF9684602F021FE00244FF6FF70EC
:1018B000174DADF800400190ADF80840ADF802407A
:1018C0006946284602F0D4FD00231A460321284623
:1018D00002F026FC05A802F092FCADF81C4005A918
:1018E000284602F036FC0121284602F001FC0122C4
:1018F0001146284602F08BFC0021284602F08EFD9E
:101900000121284602F0F7FB09B030BD0004024077
:101910000008004030B589B00121082001F0E2FF45
:101920000121084601F0C6FF032003908DF8110045
:1019300002208DF8100001208DF81200224C8DF845
:10194000130003A9204600F03DF9022200212046A1
:1019500000F074F902220121204600F06FF9684678
:1019600002F0C4FD00244FF6FF70184DADF80040A2
:101970000190ADF80840ADF802406946284602F0F3
:1019800077FD00231A460321284602F0C9FB05A86B
:1019900002F035FCADF81C4005A9284602F0D9FB41
:1019A0000121284602F0A4FB01221146284602F03C
:1019B0002EFC0021284602F031FD0121284602F0CC
:1019C0009AFB09B030BD000000000240000C00404E
:1019D00070B53B4B3B4C05221D88658122802088D9
:1019E000668933F81010B14200D36181401C80B287
:1019F00020807B28F3D3A58122802088A58933F815
:101A00001010A94200D8A181401C80B220807B2800
:101A1000F3D36089A189084440082082228022886B
:101A200033F81210814214D903EB42014D888542EC
:101A30000FD98D8885420CD9CD88854209D20D8970
:101A4000854206D24989814203D291B2891CA18084
:101A500004E0521C91B221807629E0D37621618086
:101A60008AB233F81210814214D203EB42014D883E
:101A700085420FD28D8885420CD2CD88854209D906
:101A80000D89854206D94989814203D990B2801CCB
:101A9000E08004E0521E91B261800529E0D8E08820
:101AA000A18808444008E0812189401A04F078FEAA
:101AB0005A2801D92089E081E089208170BD000089
:101AC000C40200201800002070B530EEC01A344D5A
:101AD000344905F1800485ED1E1AD4ED001A71EE2B
:101AE000811A11EE900AC4ED001A884202DDDFED82
:101AF0002E1A06E011EE900A2C49884203D9DFED38
:101B00002C1AC4ED001A264930EEC00A803129484B
:101B100091ED012ADFED281A007830EE420A022802
:101B200025D0012823D095ED102AD5ED122AC2EE3A
:101B3000210A82EEA12AD4ED002A60EE810A42EE4B
:101B4000220AD5ED112A1D4882EEA12A42EE000A92
:101B5000C5ED1F0A84ED011A90ED000ABDEEC00A22
:101B600010EE100A02F0CCFC012811D014E095ED23
:101B7000132AD5ED152AC2EE210A82EEA12AD4ED50
:101B8000002A60EE810A42EE220AD5ED142ADAE735
:101B90009FED0B0A84ED000A95ED1F0A70BD000051
:101BA0007000002000007A4400007A4400007AC4EB
:101BB00000007AC4B10100200000C84240000020AB
:101BC00000000000F0B5002201274FF0030C0B6865
:101BD00007FA02F52B40AB422CD1066853000CFAF1
:101BE00003F4A64306600E79D0F800E09E4046EA72
:101BF0000E0606600E79012E01D0022E12D18668E3
:101C0000A64386604E79D0F808E09E4046EA0E066C
:101C100086604668AE43466045688E799640B6B2A7
:101C200035434560C568A543C560CC799C40C36811
:101C30001C43C460521C102AC9D3F0BD4B07DB0EF5
:101C40009A40C90810B500EB8100016A0F249C403E
:101C5000A1430162016A1143016210BD41837047D3
:101C60000183704710B50A4C014607230122204624
:101C7000FEF72AFE2046FEF761FE02212046FEF70F
:101C8000F6FD0028F9D02046BDE81040FEF7ECBD77
:101C900000200140F0B464486449027864480E783A
:101CA0000578644804789FED641A644BDFED642A7C
:101CB000DFED641A644F9FED652A654897ED000AD1
:101CC0006449F1EE400A52B1012A08D0092C66D2CB
:101CD000DFE804F0654346494E5156596200092C2D
:101CE00024D2DFE804F02305080B1013181B200092
:101CF00080ED000A0CE080ED000A01E080ED001AA2
:101D0000C3ED000A53E0C0ED000AF9E7C0ED000A98
:101D100083ED001A4BE0C0ED000A01E080ED001AEF
:101D200083ED000A43E080ED000AF9E780ED001A38
:101D300083ED001A012E04D0012D07D081ED001A89
:101D400035E0C0EE220A60EE820A03E0C0EE220A0D
:101D500060EEA10AC1ED000A29E080ED000A0CE066
:101D600080ED000A01E080ED001AC1ED001A0EE0DE
:101D7000C0ED000AF9E7C0ED000A81ED001A06E0A7
:101D8000C0ED000A01E080ED001A81ED002A012E6D
:101D900008D0012D09D00AE080ED000AF5E780EDBA
:101DA000001AEAE781ED002A01E0C1ED001A022ADB
:101DB00006D0032A11D0052A0FD0042A0DD01FE027
:101DC00091ED000AF0EE000A20EE200AF2EE020A7F
:101DD00080EE201A81ED001A12E0D0ED000AF5EE37
:101DE000C00AF1EE10FAD1ED000A03D2F1EE600A5A
:101DF000C1ED000A20EE800AC0EE220AC1ED000A01
:101E0000D0ED000A9FED141A80EE810A80ED000AE1
:101E1000D3ED001AC1EE810AC3ED000A91ED001A5C
:101E2000F0BCFFF715BA0000B1010020300200201D
:101E300031020020F2010020000000001402002006
:101E40000000FA43DB0FC9BFB4010020DB0FC93F1C
:101E5000100200201802002000007A444D494E4A2A
:101E60004E4891ED031A82ED001A0088403800EECA
:101E7000100A4B48F8EEC00AC1ED130A00789FED36
:101E8000490A9FED492A0B460128D3ED141A22D0A6
:101E900005282BD0454B70EEE11AD3ED002A444BB8
:101EA00060EEA22A22EE800AD3ED002AC1ED140AC8
:101EB00061EEA21A01EEC20ADFED3E0A3E4900B30E
:101EC000012823D0022828D0032829D0052837D07C
:101ED00004283FD051E0394B70EEE11AD3ED002ACF
:101EE000374B60EEA22A22EE800ADDE7354B70EE1A
:101EF000E11AD3ED002A344B60EEA22A22EE800ACA
:101F0000D2E7F0EE411A20EE210A32E0F0EE410A6B
:101F100020EE200ADFED2D0A2BE0DFED2D0A28E070
:101F2000F0EE410AF5EEC00AF1EE10FA01D2B1EE80
:101F3000400AF0EE410A20EE200ADFED260A18E002
:101F4000F0EE411AF5EEC01AF1EE10FAD9D2B1EE68
:101F5000400AD6E7F0EE410AF5EEC00AF1EE10FABB
:101F600001D2B1EE400AF0EE410A20EE200ADFED88
:101F70001A0AC0EE201AC1ED001ADFED180A18483F
:101F800081EE200A82ED000A91ED001AD0ED000AE0
:101F9000FFF75EB934020020100200202600002066
:101FA000B1010020CDCCCCBDCDCCCC3DD8010020A2
:101FB000DC0100200050434718020020C801002027
:101FC000CC010020B8010020BC0100200010A44674
:101FD0000000E14300DC824700089D4600007A448F
:101FE000140200202DE9F0412DED028BDFED668A11
:101FF000FFF79CF8654E664CD8B16420FFF764F893
:10200000C6ED008AC4ED008AD6ED000A9FED611A84
:10201000614880EE810AF0EE680A86ED000A94EDD0
:10202000001AC0ED008ABDEC028BBDE8F041FFF75D
:102030000FB95A4D5A485B4F95ED040A86ED000AD8
:102040000068C0F1640000EE100AB8EEC00A85ED29
:10205000150A38789FED541ADFED540A01282BD069
:10206000052836D05248D0ED001A524860EE211AA9
:1020700021EE818A95ED161A30EE411AD0ED001A44
:1020800021EE211A01EE608A85ED160A0020FFF785
:102090001BF83878A0B301283AD003283FD0052890
:1020A0004DD004285BD00228AED19FED430AC8EE84
:1020B000000AC4ED000AA7E74048D0ED001A4048E6
:1020C00060EE211A21EE818A95ED161A30EE411A42
:1020D000D4E73C489FED3C1AD0ED000A3B4860EE47
:1020E000200A20EE818AD5ED160A90ED001A70EED6
:1020F000600A60EE810A9FED361A00EEC18AC3E7DE
:10210000FFE795ED040ADFED330A28EE000A35E01B
:1021100095ED040ADFED300A28EE000A2EE096ED78
:10212000000AB5EEC00AF1EE10FA01D2B1EE488A0B
:1021300095ED040ADFED290A28EE000A1EE096ED6F
:10214000000AB5EEC00AF1EE10FA01D2B1EE488AEB
:1021500095ED040ADFED220A28EE000A0EE096ED66
:10216000000AB5EEC00AF1EE10FA01D2B1EE488ACB
:1021700095ED040ADFED1B0A28EE000A80EE201A16
:1021800084ED001A40E7000000000000100200206B
:102190001802002000007A441402002034020020BB
:1021A00038000020B10100200AD7A3BDCDCC4C3DA2
:1021B000E0010020E40100200000E143D001002004
:1021C000D4010020C0010020CDCCCCBDC401002032
:1021D000CDCCCC3D0050434700C0284600C82F4717
:1021E00000C0DA4600089D4610B502202DED048B94
:1021F00001F04CFC3C4C2060032001F047FC606087
:10220000042001F043FCA060052001F03FFC3749A9
:10221000E0600978062919D2DFE801F04703575733
:1022200047572168494200EE101A6168F8EEC09ADB
:10223000494200EE101AA168B8EEC09A494200EE79
:10224000101A4EE000EE100AB8EEC08A9FED281A70
:10225000284869EE810A90ED000A274860EE801A4E
:10226000D0ED000A254881EEA02A69EE011A61EE40
:10227000801A80ED002A81EEA02A68EE811A20489B
:1022800028EE011A61EE801A21EE000A80EE201A73
:1022900080ED002A1B4881EEA02A80ED002A1A4812
:1022A00080ED001ABDEC048B10BD94ED000AA1680E
:1022B000F8EEC09A94ED010A49424042B8EEC09A45
:1022C00000EE101AF8EEC08ABCE794ED000A6168CF
:1022D000F8EEC09A494200EE101AB8EEC09A94ED9A
:1022E000020AF8EEC08AADE7F8690020B1010020CB
:1022F0000000C842200200201C020020A869002023
:10230000BC690020D0690020E46900202DE9F0417B
:1023100000250E4607462C4608E03846FFF7A2FC8B
:102320000544052004F066F9641CE4B2B442F4D319
:10233000B5FBF6F080B2BDE8F081000010B50820D2
:10234000FFF790FC07F042FB9FED0E1B53EC112BA7
:1023500007F08CFB9FED0D1B53EC112B07F086FB58
:102360009FED0C1B53EC112B07F080FB9FED0B1B1B
:1023700053EC112B07F07AFB07F09CF800EE100AE3
:1023800010BD00006666666666660A4000000000D2
:102390000000264000000040E17AF03F000000000D
:1023A0000000303FFEE70000174830EEC00A174932
:1023B000D0ED070A174A91ED001A70EE600A144931
:1023C00060EE810A91ED001A41EE000A90ED061AC6
:1023D00070EE810A10EE901AC0ED060A914203DDFC
:1023E000DFED0D0AC0ED060A10EE901A0B4A91427D
:1023F00003D9DFED0B0AC0ED060A80ED070ABDEE3A
:10240000E00A10EE100A704734020020E8010020B4
:10241000EC0100200040834600408346004083C614
:10242000004083C6174830EEC00A1749D0ED0A0AAB
:10243000174A91ED001A70EE600A144960EE810AA5
:1024400091ED001A41EE000A90ED091A70EE810A32
:1024500010EE901AC0ED090A914203DDDFED0D0A7E
:10246000C0ED090A10EE901A0B4A914203D9DFED34
:102470000B0AC0ED090A80ED0A0ABDEEE00A10EE73
:10248000100A704734020020E8010020EC0100200F
:102490000040834600408346004083C6004083C618
:1024A000174830EEC00A1749D0ED0D0A174A91EDD2
:1024B000001A70EE600A144960EE810A91ED001A6C
:1024C00041EE000A90ED0C1A70EE810A10EE901A9F
:1024D000C0ED0C0A914203DDDFED0D0AC0ED0C0AE0
:1024E00010EE901A0B4A914203D9DFED0B0AC0EDB2
:1024F0000C0A80ED0D0ABDEEE00A10EE100A7047DE
:1025000034020020E8010020EC0100200040834656
:1025100000408346004083C6004083C6174830EE23
:10252000C00A1749D0ED100A174A91ED001A70EE53
:10253000600A144960EE810A91ED001A41EE000A2A
:1025400090ED0F1A70EE810A10EE901AC0ED0F0A8E
:10255000914203DDDFED0D0AC0ED0F0A10EE901A77
:102560000B4A914203D9DFED0B0AC0ED0F0A80ED53
:10257000100ABDEEE00A10EE100A70473402002087
:10258000E8010020EC010020004083460040834623
:10259000004083C6004083C61CB50121102001F015
:1025A00089F900218DF80410032101208DF8051010
:1025B00000908DF8070069460148FFF703FB1CBD3A
:1025C000001002407CB50121084601F073F901209A
:1025D0008DF8040000228DF8062003218DF80510E7
:1025E000074D4FF480548DF8070000946946284643
:1025F000FFF7E8FA21462846FFF732FB7CBD0000D2
:10260000000002402DE9F043DFF8C89087B048464B
:1026100002F0B0F901210C2001F04CF9012108056C
:1026200001F060F92C4F08220C213846FFF706FB19
:10263000DFF8A880082202214046FFF7FFFA0225B2
:102640008DF804500024B8148DF8064000908DF8E1
:10265000055001268DF8076069463846FFF7B2FA43
:102660008DF8045004208DF8064000908DF8055038
:102670008DF8076069464046FFF7A4FA35208DF8CB
:1026800018008DF819608DF81A408DF81B6006A8A7
:1026900000F0E2FB4FF461300290ADF810400C20E6
:1026A000ADF80C40ADF81200ADF80E40ADF8144096
:1026B00002A9484602F0ECF9012240F225514846B1
:1026C00002F0CDF90121484602F04AF907B0BDE811
:1026D000F08300000050004000080240000C02405F
:1026E000F0B4DFED3F1A00203E4D3F4C0246B0EE05
:1026F000610A01464FF0937604EBC003D3ED010A63
:1027000010EE903A2B44B34221D934F830305F1E9A
:10271000B7F5E07F1BD810EE907ADFF8C8C0521CE6
:10272000CCF1000CD2B2674502DA30EE800A0AE042
:1027300010EE907ADFF8B4C0674504DD9FED2C1AE7
:1027400070EEC10AF1E7C82B01D2491CC9B2401C86
:10275000C0B2E128D0D3284CDFED260A274BC4EDC8
:10276000000A2AB1082906D99FED250A84ED000A3E
:10277000C3ED001A23E02348B5EEC00AC4ED001AE9
:10278000F1EE10FA00780FDD28B1C4ED000A02283E
:1027900004D0012805D0B7EE080A0EE09FED1A0A12
:1027A0000BE0B6EE000A08E028B1C4ED000A0228EA
:1027B0000FD0012810D0BFEE080A83ED000A13489D
:1027C00093ED001A94ED000AD0ED000AF0BCFEF77C
:1027D0003FBD9FED0F0AF0E7BEEE000AEDE70000F7
:1027E00000000000000090BD3C0F00200000964358
:1027F0000000B4439A99993E10020020180200206C
:102800009A9999BEB1010020DB0F493F14020020C4
:10281000DB0F49BF2DE9F04100215C4B5C4E4FF6C8
:10282000FF742DED028B084640F23F6533F83020EF
:10283000571EAF4209D2491CA24206D2144603EBEE
:10284000C00292ED010A86ED170A401CE128EDDB7B
:1028500096ED170A4F4A10EE100A904205DDDFEDA3
:102860004E0A30EE600A86ED170AD6ED180A48487F
:102870004A4D70EE600AC078002210EE903A401C7B
:10288000C0B2AB4204DC10EE903A454DAB4203D9E6
:10289000F0701E2803D805E0F0700A2802D9F27003
:1028A00086ED180ADFED3F0A3F4D404F08290CDA4C
:1028B000F088282804D2401C80B2F080282857D302
:1028C000C7ED000AC5ED000A52E0F28038493868C9
:1028D0009FED388A884202DC374988421AD9B4F51C
:1028E0002F7F0ED296ED180A344910EE100A884256
:1028F00004DC10EE100A3249884202D920EE080AA0
:1029000005E096ED180AFFF7DFF8B1EE400A85ED15
:10291000000A01E0C5ED000A2A49F06DDFED2A0A40
:10292000884202DC2949884210D900EE104AB8EEEC
:10293000400AFEF725FCB1EE400A87ED000A96ED4D
:10294000180A20EE080A85ED000A07E000EE104A9A
:10295000B8EE400AFEF714FC87ED000A9FED1C1A42
:10296000DFED1C0A97ED000A05F013FB87ED000A66
:10297000194895ED001A97ED000AD0ED000ABDEC5C
:10298000028BBDE8F041FEF763BC00003C0F002065
:1029900034020020000034430000B4430000204112
:1029A000000020C1000000001802002010020020DA
:1029B0008FC2753D2E9020BC8FC275BD0000704245
:1029C000000070C2000016430000FA43000016C366
:1029D0009A99193F9A9919BF140200202DE9F041E4
:1029E000324D00242DED028B2046DFED2F8A304939
:1029F000C5ED008A2F4FDFF8C0E0304A0123CC66D6
:102A000002EBC00676683E44764511D28E6E1EB942
:102A100032F83060C1E91963D1F864C032F830602F
:102A20000CF1640C664503D2641C00EE106AE4B23B
:102A3000401CC866E128E3DB21489FED228A224E34
:102A40000078224F88B101280FD0D1ED190AB8EED5
:102A5000400AF8EE600AFEF745F987ED000AC5ED79
:102A6000008A86ED008A7CB112E0D1ED190AB8EE39
:102A7000400AF8EE600AFEF735F986ED000AC5ED6A
:102A8000008A87ED008AEEE786ED008A87ED008AEE
:102A900097ED001AD6ED000AB0EE680ABDEC028B85
:102AA000BDE8F041FEF7D4BB9A99993E1002002090
:102AB00034020020FFFF79BCFFFF01003C0F002023
:102AC000B1010020000000001402002018020020C4
:102AD00000EE900A41421E4AB8EEE01A00EE901A4B
:102AE00000B592ED010AF8EEE00A05F052FA00EEA8
:102AF000900A82ED010A174AB8EEE01A00EE901A29
:102B000092ED010AF8EEE00A05F043FA00EE900AB1
:102B100082ED010A104AB8EEE01A00EE901A92ED2A
:102B2000010AF8EEE00A05F034FA00EE900A82EDB0
:102B3000010A0A4AB8EEE01A00EE901A92ED010A74
:102B4000F8EEE00A05F025FA82ED010A00BD00006A
:102B5000A8690020BC690020D0690020E469002039
:102B6000FEE700002DE9F0418846074601218AB0C2
:102B7000880400F0CFFE0121022000F09BFE1F4ED2
:102B8000032209213046FFF759F870150090022002
:102B90008DF8040003208DF8050000248DF8064010
:102BA00001258DF8075069463046FFF70BF8144EA3
:102BB000ADF808800397ADF81050ADF80A4002A9AF
:102BC000304601F055FC6020ADF81400ADF8165009
:102BD000ADF8204005A9304601F022FB082130461F
:102BE00001F04EFB0121304601F078FA0121304618
:102BF00001F081FA0AB0BDE8F08100000004024053
:102C0000004801402DE9F0418846074601218AB07D
:102C1000084600F07FFE0121102000F04BFE354EEB
:102C2000012209213046FFF709F801220B21304625
:102C3000FFF704F801220D213046FEF7FFFF0122C5
:102C40000E213046FEF7FAFF4FF4D44005900220E3
:102C50008DF8180003208DF8190000248DF81A4013
:102C600001258DF81B5005A93046FEF7ABFF224E1B
:102C7000ADF81C800897ADF82450ADF81E4007A9A8
:102C8000304601F0F5FB6020ADF80000ADF80250D1
:102C9000ADF80C406946304601F0C2FA694630464C
:102CA00001F0F4FA6946304601F03AFB69463046D5
:102CB00001F07AFB0821304601F0E2FA08213046A3
:102CC00001F024FB0821304601F068FB0821304662
:102CD00001F09AFB0121304601F017FA012130463C
:102CE00001F0FCF90121304601F005FA0AB0BDE817
:102CF000F081000000100240000001402DE9F04387
:102D00008946804601218BB0080400F003FE0121B2
:102D1000102000F0CFFD254F032205213846FEF795
:102D20008DFF032206213846FEF788FF02208DF82A
:102D3000180003208DF81900002460268DF81A4031
:102D4000012505968DF81B5005A93846FEF73AFF78
:102D5000174FADF81C90CDF82080ADF82450ADF899
:102D60001E4007A9384601F083FBADF80060ADF8BE
:102D70000250ADF80C406946384601F051FA6946F8
:102D8000384601F083FA0821384601F079FA082123
:102D9000384601F0BBFA0121384601F09FF90121C4
:102DA000384601F0A8F90BB0BDE8F08300100240EE
:102DB000004001402DE9F0418846074601218AB0D4
:102DC000480400F0A7FD0121022000F073FD1F4E12
:102DD000032208213046FEF731FFB0150090022093
:102DE0008DF8040003208DF8050000248DF80640BE
:102DF00001258DF8075069463046FEF7E3FE144E74
:102E0000ADF808800397ADF81050ADF80A4002A95C
:102E1000304601F02DFB6020ADF81400ADF81650DF
:102E2000ADF8204005A9304601F0FAF908213046F6
:102E300001F026FA0121304601F050F90121304617
:102E400001F059F90AB0BDE8F08100000004024029
:102E5000004401407047000030B50F23C27801786C
:102E60000125FAB1144A126801F1E02102F4E0628E
:102E7000C2F5E062C2F30722C2F10404D3404278F3
:102E8000A24084781C401443220181F80024007879
:102E900000F01F018D404009800000F1E020C0F8E3
:102EA000005130BD01F01F0085404809800000F14D
:102EB000E020C0F8805130BD0CED00E0024908432D
:102EC00002490860704700000000FA050CED00E0C0
:102ED00010B40021084B0A46002003EBC004401C3C
:102EE000C0B262548028F8D3491CC9B20829F3D370
:102EF00010BC00F0D3B80000C403002010B57F2838
:102F000016D83F2914D80723A3EBD10301F00701FA
:102F1000C1F107040121A140064CDBB204EBC00063
:102F2000002AC25CC9B201D00A4300E08A43C254FD
:102F300010BD0000C40300202DE9F04116460D46E7
:102F400007460024FFF7DAFF324629463846FFF7E6
:102F5000D5FF2819C1B232463846FFF7CFFF641CAF
:102F6000E4B2082CF5D3BDE8F08100007CB5012166
:102F7000082000F09FFC01268DF8046000244FF427
:102F8000F0408DF8064000908DF805408DF8074020
:102F900069464048FEF716FE0121080700F0A2FC32
:102FA000012000F081FC002000F014FD002000F062
:102FB0007BFC394DC5F8B042642005F52C7503F053
:102FC00019FB2E600021AE2000F044F90021D5202D
:102FD00000F040F90021502000F03CF90021A82029
:102FE00000F038F900213F2000F034F90021D3200F
:102FF00000F030F90021084600F02CF900214020B3
:1030000000F028F900218D2000F024F9002114207F
:1030100000F020F90021202000F01CF900210220FE
:1030200000F018F90021A12000F014F90021C020BF
:1030300000F010F90021DA2000F00CF90021122034
:1030400000F008F90021812000F004F90021EF20B0
:1030500000F000F90021D92000F0FCF80021F12057
:1030600000F0F8F80021DB2000F0F4F80021302017
:1030700000F0F0F80021A42000F0ECF80021A620D8
:1030800000F0E8F80021AF2000F0E4F8FFF720FF9F
:103090007CBD0000000C02400080414270B5104E23
:1030A000002505F1B000C0B2002100F0D3F80021E6
:1030B000084600F0CFF80021102000F0CBF80024E3
:1030C00006EBC4000121405D00F0C4F8641CE4B2CA
:1030D000802CF5D36D1CEDB2082DE2D370BD00003D
:1030E000C40300202DE9F04F203A98460D46834650
:1030F000894602F0FF0A00262EE0B8F10C0F08D036
:10310000174901EB0A100027845D200607D5099AAC
:1031100008E014490AEB4A0001EB8000F3E7099844
:1031200090B1002229465846FFF7E8FE6D1C600664
:10313000EDB2040EA5EB0901414507D10BF10100E9
:103140004D4600F0FF0B05E00122EBE77F1CFFB2CC
:10315000082FDAD3761CF6B24645CED3BDE8F08F01
:10316000B2A600083EA200082DE9FF4F81B000275B
:10317000DDF838B01D46924680463C464FF00109C6
:103180004FEA5B0627E0281B401EC1B20A2003F06D
:103190000BFBBAFBF0F00A21B0FBF1F201FB1200CD
:1031A00027B9691E8C4201DA48B101273030C2B21A
:1031B00006FB0480C0B25B46CDF8009006E006FB3B
:1031C0000480C0B25B462022CDF800900299FFF740
:1031D00089FF641CE4B2AC42D5D305B0BDE8F08FE2
:1031E000F8B516460D460446012714E07A2C02D99C
:1031F00000241035EDB23A2D03D900242546FFF7FF
:1032000067FE009732780C2329462046FFF76AFFB5
:103210000834E4B2761C30780028E7D1F8BD00000D
:1032200070B50A4D0A4E002435F8140031888842E2
:1032300001D2012200E0002200212046FFF77CFE9F
:10324000641CE4B2802CEFD370BD0000C4020020E7
:103250002800002030B500230E4A012411B1C2F825
:10326000AC4201E0C2F8AC320021C2F8B832050627
:1032700002D5C2F8B44201E0C2F8B432C2F8B84292
:103280004006491C000EC9B20829EED3C2F8AC4270
:1032900030BD0000008041420020044A0146115424
:1032A000401CC0B20928FAD3704700004416002021
:1032B0002DE9F84301250746ADF800501E480026C9
:1032C0004670ADF800501D4C80464FF6FF792AE05D
:1032D000BDF80000384202D0C4F8B05201E0C4F892
:1032E000B062102003F0A2F9C4F8A052052003F048
:1032F0009DF9C4F8A062052003F098F9C4F8A05223
:10330000D4F83C0230B198F80110BDF80020114308
:1033100088F80110102003F089F9BDF8001009EABF
:103320004100ADF80000BDF80000FF28D0D9BDE88D
:10333000F843102003F07AB94416002000004242FE
:103340002DE9F00F6A486C4900680968C0F18003F4
:103350006848C1F180026FF0130100688B42C0F130
:10336000800002DD142B00DA0023884202DD1428DD
:1033700000DA00208A4202DD142A00DA00225F49C6
:1033800009689FED5F0ADFF87C915F4E5F4F00296F
:103390007DD0DFF87CC1614C6149DCF80050DFED85
:1033A0005D2A9FED5D2A94ED1D1AD4ED1C0A097863
:1033B0004FF0000AF7EE001A0B2D15D00C2D43D05C
:1033C00084ED120AD4ED1C0A9FED561A01EE903AD4
:1033D00020EE812AF8EEE11A62EE211AC9ED001AF8
:1033E00089B301295FD066E094ED113ADFF83881A6
:1033F00073EE211A11EE905AC4ED111A4545E1D130
:1034000070EEA20ACCF800A0DFF820C110EE905AAE
:1034100084ED110AC4ED1C0A654503DDDFED440AA5
:10342000C4ED1C0A0229CDD071EE020ADFF804C1F6
:1034300010EE905AC4ED1D0A6545C3DDDFED3E0A6E
:10344000C4ED1D0ABEE72EE094ED123ADFF8EC80E1
:1034500073EE211A11EE905AC4ED121A4545B1D1FE
:1034600070EEE20ACCF800A0DFF8D4C010EE905A5B
:1034700084ED120AC4ED1C0A654503DADFED310A5A
:10348000C4ED1C0A02299DD071EE420A00E02AE038
:1034900010EE905ADFF8B0C0C4ED1D0A654591DA10
:1034A00084ED1D2A8EE700EE102AB8EEC00A20EE49
:1034B000200A20EE010A86ED000A94ED1D0A60EE56
:1034C000010A00EE100AB8EEC00A20EE800A87ED6D
:1034D000000AB0EE401AD6ED000A99ED000ABDE8E8
:1034E000F00FFDF7B5BE89ED000A86ED000AEEE7A4
:1034F0000002002004020020FC010020FC0000204B
:103500000000000010020020140200201802002019
:103510000C0200200AD7A33DCDCC4C3E3402002043
:10352000B10100200000003C0000A041A4709D3FBC
:10353000A4709D3FAE471140AE471140000070415E
:10354000CDCCCC3DCDCCCC3DCDCC4C3E70B5FFF7F9
:10355000A3FE00F0F7F80B480B4AB0F803400A4806
:10356000083244800020012512F8103000F10100DB
:103570005B1E05FA03F12142C0B202D01028F3D33A
:10358000002070BD44160020F800002010B5154C36
:103590000020C4F8A802102004F52A7403F046F8AD
:1035A0000120FFF785FE4320FFF782FE0020FFF792
:1035B0007FFE0120FFF77CFE0020FFF779FE002050
:1035C000FFF776FE0020FFF773FE0020FFF770FE86
:1035D0000020FFF76DFE01202060BDE810401020A4
:1035E00003F024B80000424210B5154C0020C4F886
:1035F000A802102004F52A7403F018F80120FFF740
:1036000057FE4320FFF754FE0020FFF751FE002035
:10361000FFF74EFE5A20FFF74BFE5A20FFF748FEF9
:103620005A20FFF745FE5A20FFF742FE5A20FFF7C7
:103630003FFE01202060BDE81040102002F0F6BFE0
:10364000000042427CB50121102000F033F94FF414
:103650000040002400908DF8044003208DF8050000
:103660000C4E02258DF8075069463046FEF7AAFA3F
:1036700001218DF804108DF806404FF4A8508DF804
:10368000055000908DF8071069463046FEF79AFA0B
:103690007CBD00000010024010B5FFF757FF1A492B
:1036A0001A4A1B4B0860D17919601A4B117A1A4CCF
:1036B000196053792360194B92791A60184B0122D3
:1036C00004281BD05868002817D0762915DA154829
:1036D0000178002911D114490270002008701448A3
:1036E0009FED120A80ED000A124801781248022963
:1036F00006D09FED120A80ED000A10BD5A60E4E783
:103700009FED0F0AF7E700000C020020441600208E
:10371000FC0100200002002004020020080200201A
:10372000F8000020F1010020F0010020CDCC4C3E3B
:10373000A4020020B1010020A80200209A99993E1D
:10374000DB0F493F2DE9FC4100268DF80060012583
:10375000ADF80450224CC4F8A862224F3878FFF725
:10376000A7FD7878FFF7A4FD02208DF800001E4F1A
:103770004FF6FF782CE0ADF804501DE0C4F8A052DD
:10378000052002F053FFC4F8A062052002F04EFFAE
:10379000C4F8A052D4F83C0240B19DF80000BDF836
:1037A0000410385C08439DF800107854BDF80410EC
:1037B00008EA4100ADF80400BDF80400FF28DDD997
:1037C000102002F033FF9DF80000401C8DF800002F
:1037D0009DF800000928CED3C4F8A852BDE8FC81AA
:1037E00000004242F80000204416002010B500F00E
:1037F0000DF800F00BF800F009F8FFF7C7FE00F035
:1038000027F8BDE81040FFF7EFBE000010B50F4CE1
:103810000020C4F8A802102004F52A7402F006FF64
:103820000120FFF745FD4220FFF742FD0020FFF792
:103830003FFD0020FFF73CFD0020FFF739FD012090
:103840002060BDE81040102002F0F0BE00004242AF
:1038500010B5144C0020C4F8A802012004F52A7405
:10386000FFF726FD4420FFF723FD0020FFF720FD92
:103870000120FFF71DFD0320FFF71AFD0020FFF7D1
:1038800017FD0020FFF714FD0020FFF711FD0020B9
:10389000FFF70EFD01202060BDE81040102002F06F
:1038A000C5BE0000000042420149086270470000A6
:1038B00000000E42044A0029116801D0014300E0D3
:1038C000814311607047000030380240044A0029EB
:1038D000116801D0014300E081431160704700008E
:1038E00014380240044A0029116801D0014300E065
:1038F000814311607047000040380240044A0029AB
:10390000116801D0014300E081431160704700005D
:1039100020380240044A0029116801D0014300E028
:10392000814311607047000044380240044A002976
:10393000116801D0014300E081431160704700002D
:103940002438024070B5204B1968204C11F00C014E
:1039500004D06610042903D0082903D004601BE0BA
:10396000066019E0184A121F1168C1F380551168EA
:1039700001F03F0115B1B6FBF1F101E0B4FBF1F14B
:1039800014681268C4F388146143C2F30142521CE4
:103990005200B1FBF2F1016019680F2202EA111125
:1039A0000B4A545C0168E14041601C68072505EA48
:1039B0009424145D21FA04F484601B6805EA5333EF
:1039C000D25CD140C16070BD083802400024F400D0
:1039D0002C010020054900220A700A70012802D03B
:1039E000042801D10520087070470000703802409B
:1039F0002DE9F0470025224F01262C46C7F8946296
:103A000007F52577FDF71EFC1E4A0021C2F890122B
:103A100002F52472FDF716FC3960FDF713FC116006
:103A2000FDF710FC1660FDF70DFC3960FDF70AFC90
:103A30001660FDF707FC3E60FDF704FC3E60A7F54D
:103A40002577FDF7FFFB1160FDF7FCFBDFF83890F1
:103A50008846C7F89482FDF7F5FB0420FEF702F9CB
:103A6000010929F81410641CE4B2C7F89462FDF748
:103A7000E9FB6D1CEDB2802DEBD3BDE8F0870000B3
:103A80000000404200004142C40200200021022800
:103A900007D003280BD004280BD005280BD000201A
:103AA00070474FF08042506A516200B27047044A3A
:103AB00002E0044A00E0044A1068116000B2704756
:103AC0002404004024080040240C004010B551ECB0
:103AD000100B2DED068BB0EE439AF0EE629AB0EE2D
:103AE00042AAF0EE618AB0EE418A05F0E3FCBDEE39
:103AF000CA0A154910EE102ABDEEE90A086081EDE8
:103B0000018A10EE103AC1ED058AC1E9022381ED68
:103B1000049A9900514300EE101A0C49B8EEC00AFD
:103B200081ED000A9FED0A0A0A4929EE000A81ED9B
:103B3000000A09490860094880ED008A0848C0ED7C
:103B4000008ABDEC068B10BD086A00201C02002014
:103B5000DB0F494020020020240200202802002020
:103B60002C02002010B5324C4FF4AD700A212060B9
:103B70000920FEF7CBFB216890FBF1F02D49C0B284
:103B80000528087001D905200870C0B29FED2A1AD7
:103B90009FED2A3A062849D2DFE800F003101B26E1
:103BA0002F3AF0EE411A9FED263AF2EE0A2AB3EED2
:103BB0000E2A9FED241A9FED240B33E09FED243A4B
:103BC000F2EE0A2AB3EE0E2ADFED221A9FED220B47
:103BD00028E0F0EE411AF2EE0A2AB3EE0E2A9FED2B
:103BE000201A9FED200B1DE0F2EE0A2AB3EE0E2AFA
:103BF000F0EE411A9FED1D0B14E0F0EE411AF2EECB
:103C00000A2AB3EE0E2A9FED1B1A9FED1B0B09E04B
:103C10009FED1B3A9FED1B0BF2EE0A2AB3EE0E2A24
:103C2000F0EE411ABDE81040FFF750BF10BD000094
:103C3000F4010020B101002000000000B81E853D05
:103C40009A99993D7B14AE3D022B8716D9CEB73F8A
:103C50008FC2753DE17A943E000000000000000034
:103C6000BC74133E000000806ABCC43F000000A08A
:103C7000EFA7C63FE926313E000000C09DEFC73FD9
:103C8000C520303D000000E07A14CE3F2DE9F04120
:103C9000884606468AB001210220FFF73BFE01213B
:103CA0000420FFF707FE02208DF81800000205909F
:103CB00003208DF8190000241E4F8DF81A400125AD
:103CC0008DF81B5005A93846FDF77CFF032209211A
:103CD0003846FDF7B3FF0896174EADF81C80ADF8D7
:103CE0002440ADF81E4007A9304600F0C1FB60201B
:103CF000ADF80000ADF802500294ADF80C40ADF8FC
:103D000010406946304600F04FFB0821304600F075
:103D10007BFB0121304600F0F8F90121304600F02C
:103D2000EAF9054940F2DC50403108600AB0BDE8CC
:103D3000F081000000080240000401400CB50022A0
:103D4000274900920192086840F4803008604FF4DF
:103D5000A043086800F4003001900098401C0090D7
:103D6000019810B900989842F3D10868800334D5BF
:103D7000012001901A484030026842F080520260EF
:103D80001848026842F44042026015480830026850
:103D90000260026842F400420260026842F4A052EB
:103DA0000260031F104A1A600A6842F080720A60BB
:103DB0000A689201FCD50D4940F205720A6001685B
:103DC00021F003010160016841F002010160016816
:103DD000C1F381010229FAD10CBD01920CBD000092
:103DE000003802400070004008544007003C024088
:103DF000F0B5174E174F059D44F2A014002803DAC2
:103E000034602044386002E03C60201A3060124880
:103E1000002903DA44632144816302E08463611A68
:103E200041630E48002A03DA44631119816302E0FA
:103E30008463A11A4163002B03DA04641919C16376
:103E400002E0C463E11A016405480560F0BD0000AA
:103E5000344801403444014000400140000001402A
:103E60004004014000B5B0EE412AF0EE602AB0EE09
:103E7000401A9FED490A4948D0ED001ADFED480A83
:103E8000B5EEC01AF1EE10FA02DD71EE801A0EE006
:103E9000B5EEC01AF1EE10FA02D271EEC01A06E0C9
:103EA000B5EEC01AF1EE10FA03D161EEA01AC0ED22
:103EB000001A3A49F5EEC02AD1ED011AF1EE10FAD6
:103EC00002DD71EE801A0EE0F5EEC02AF1EE10FA76
:103ED00002D271EEC01A06E0F5EEC02AF1EE10FA39
:103EE00003D161EEA01AC0ED011A2C49B5EEC02A2B
:103EF000D1ED021AF1EE10FA02DD31EE800A0EE089
:103F0000B5EEC02AF1EE10FA02D231EEC00A06E098
:103F1000B5EEC02AF1EE10FA03D121EEA00A80ED31
:103F2000020AB0EE410A02F0EDFBF0EE400AB0EEFC
:103F3000410A02F0E7FBF1EE401AB0EE601A90ED94
:103F4000000AF0EE610A04F024F880ED000AB0EEF9
:103F5000620A02F0D7FBB0EE401AB0EE620A02F03D
:103F6000D1FBF1EE400A90ED010A04F012F880ED69
:103F7000010AB0EE420A02F0C5FBB0EE401AB0EE04
:103F8000420A02F0BFFBF1EE400A90ED020A04F093
:103F900000F880ED020A00BD0AD7233C9C6900208E
:103FA0006666663F4FF0E0210428086903D020F0E0
:103FB00004000861704740F00400FAE710B505F00E
:103FC00011F8012803D0BDE8104004F0FFBC10BD7B
:103FD000124810B5016841F4700101601048016891
:103FE00041F0010101600E4A0021083211600268AF
:103FF0000C4B1A400260031D0B4A1A60026822F43F
:104000008022026006480C300160FFF797FE0349EA
:104010004FF000608039086010BD000088ED00E0BE
:1040200000380240FFFFF6FE1030002470B5048C0B
:1040300024F001040484058B048C4FF6FF7606EA15
:104040000313134325F0F3052B4324F00A020A431C
:1040500042F001010383018470BDF0B5048C24F0AB
:1040600010040484078B068C4FF6FF7404EA0115D4
:1040700027F4734704EA0331394304EA02220A436E
:1040800026F0A001294341F0100102830184F0BD14
:104090004FF08040018A018A21F0010101827047BE
:1040A00003480188018821F0010101807047000068
:1040B0001004004003480188018821F001010180BB
:1040C000704700001008004003480188018821F073
:1040D0000101018070470000100C00400029018898
:1040E00002D041F0800101E021F0800101807047A1
:1040F000C943018270470029018802D041F00101C3
:1041000001E021F0010101807047002930F8441FCF
:1041100002D041F4004101E0C1F30E01018070477B
:1041200070B50589048B068C25F007050D434FF605
:10413000FC410C4040F201110C434FF6FF7101EAC3
:10414000031126F0220611433143058104830184C3
:1041500070BD2DE9F0410C460E884988A28823895C
:10416000054616B3042E28D0082E2E8C4FF6FF706D
:104170002BD026F480562E84AF8B2E8C00EA0222A0
:1041800000EA013127F473473A4300EA0330104351
:1041900026F420420A4342F48051A8832984E1880E
:1041A0002846BDE8F04100F057B9FFF73FFFE1882E
:1041B0002846BDE8F04100F033B9FFF74EFFE18833
:1041C0002846BDE8F04100F033B926F480762E840D
:1041D000AF8B2E8C00EA012100EA0310104327F078
:1041E000F307384326F420620A4342F48071A8831F
:1041F0002984E1882846BDE8F04100F025B9002176
:104200000180418001228280C18001817047002AA3
:10421000828901D00A4300E08A438281704700000E
:1042200030B5028C22F001020284028C8388048B58
:1042300022F0020224F073050C882C438D8915436B
:104240004A882A430C4DA84202D00C4DA8420DD1F9
:1042500022F00805CA8923F440732A4322F004059A
:104260008A882A430D8A1D434B8A2B43838004830B
:1042700089684163028430BD0000014000040140B0
:10428000028B22F008020A430283704770B5028C49
:1042900022F010020284028C8388048B0D8824F49F
:1042A000E6464FF6FF7404EA052535438E8922F071
:1042B000200204EA061616434A8804EA0212324330
:1042C000104EB04202D0104EB04215D122F08006FE
:1042D000CA8923F4406304EA0212324322F0400602
:1042E0008A8804EA021232430E8A04EA86061E43D2
:1042F0004B8A04EA8303334383800583896881639F
:10430000028470BD0000014000040140028B4FF6A2
:10431000FF7322F4006203EA012111430183704715
:1043200070B5028C22F480720284028C8388848BA4
:104330000D8824F0730425438E894FF6FF7422F410
:10434000007204EA062616434A8804EA022232432F
:10435000104EB04202D0104EB04215D122F4006689
:10436000CA8923F4405304EA0222324322F48066CD
:104370008A8804EA022232430E8A04EA06161E43A1
:104380004B8A04EA03133343838085838968C163BE
:10439000028470BD0000014000040140828B22F0C5
:1043A00008020A438283704770B5028C22F480525F
:1043B0000284058C8288838B0C8823F4E6464FF6B2
:1043C000FF7303EA0424344325F400568D8903EA7D
:1043D000053535434E8803EA06362E43084DA8427C
:1043E00002D0084DA84205D122F480450A8A03EA8A
:1043F00082122A438280848389680164068470BDA6
:104400000000014000040140828B4FF6FF7322F44C
:10441000006203EA012111438183704741627047C2
:10442000028B22F00C020283028B0A430283704744
:10443000028B22F440620283028B4FF6FF7303EA81
:1044400001210A4302837047828B22F00C0282838F
:10445000828B0A4382837047828B22F4406282837C
:10446000828B4FF6FF7303EA01210A438283704770
:1044700030B50288164C174DA0420DD0A8420BD083
:10448000B0F1804F08D0144B984205D0134B98429E
:1044900002D0134B984203D122F070034A881A438A
:1044A000104B984206D0104B984203D022F4407330
:1044B0000A891A4302804A68C2620A880285A042B9
:1044C00001D0A84201D1897A01860121818230BDC3
:1044D00000000140000401400004004000080040CA
:1044E000000C004000100040001400404FF0FF316D
:1044F000416000210180018141808172704700008C
:104500000A2809DB0548D0F80C0228B104480078D5
:10451000012801D0002070470120704700804142EF
:10452000B001002070B54A4C40F22555294620467E
:1045300000F076FA002835D02946204600F00AFA25
:10454000204600F0FBFA434C434900256278C0B294
:104550003A2A27D2DFE802F01D272F3A3D4144478F
:104560004D57474D57474D57474D57474D57474D67
:1045700057474D57474D57474D57474D57474D574D
:10458000474D57474D57474D57474D57474D576430
:10459000686CA52805D1087001206070A078A5304E
:1045A00012E0A57070BD5A2807D1487002206070D3
:1045B000A0785A3008E03A2801D06570F1E7887099
:1045C00003206070A0783A30A07070BDC8700421DC
:1045D00001E008710521617012E048710621FAE7D7
:1045E00088710721F7E7E37803EB43031944C871A7
:1045F00004E0E37803EB430319440872521C627031
:10460000A1780844E0E7E378521C03EB4305294412
:104610005B1C48726270A1780844A070E37070BDA2
:1046200081F837003821D6E781F838003921D2E700
:1046300081F839006570E570A178884202D101F0F7
:10464000B1FEAEE73A210448FBF7A9FFA9E7000055
:104650000050004070000020000F002010B5064CF4
:1046600040F22551204600F0DBF910B1204600F061
:1046700065FA002010BD0000001001402DE9F04750
:1046800040F225512DED048B974800F0C9F9002820
:1046900074D09548001D0088944A954E954F964BCE
:1046A00001210025954C4B2808D0492808D04A28DC
:1046B00006D01B782BB1012B0BD01BE019700CE03E
:1046C0001D70A0F14103072B32D9082811DC1070AE
:1046D00010E0432808D0472809D035703D704128A4
:1046E0001CD045281AD004E03570397001E03170D3
:1046F0003D7015709FED820A824EDFF80C82DFF864
:104700000C929FED839ADFF80CA2582814D05928F8
:1047100017D07B2821D07D2825D018E063685B1C4A
:104720006360052B04D17C4B656019707B4B1D7059
:10473000A0F140031370DDE7D8ED000A30EE800AE7
:1047400003E0D8ED000A30EEC00A88ED000A2278B6
:10475000012A03D0022A08D0A1E0217061787054A8
:10476000491C61709BE002202070F078502806D030
:104770007078232805D06078A0702AE0AAE0684805
:10478000017083E06178081A05F009F941EC110B1A
:104790009FED640B00F0F0F9A778B0EE408AF019B5
:1047A000F0EE608A10F8010C303805F0F8F853ECA0
:1047B000182B05F05BF941EC180BA06805F04CFCD8
:1047C00053EC182B04F0A8FE04F074FE7F1EA060CA
:1047D000A770A0780428D5D25448007830B10628B4
:1047E00019D005282CD004283FD04FE070783038FD
:1047F00003284BD2DFE800F002070B0094ED020A19
:1048000088ED000A42E094ED020A49483CE094ED4C
:10481000020A484838E070783038032836D2DFE89A
:1048200000F002070B0094ED020A8AED000A2DE069
:1048300094ED020A404827E094ED020A3F4823E045
:1048400070783038032821D2DFE800F002070B002F
:1048500094ED020A89ED000A18E094ED020A384846
:1048600012E094ED020A37480EE0707830380328E1
:104870000CD2DFE800F00206340094ED020A324860
:1048800002E094ED020A314880ED000A257065705F
:10489000A57084ED029A32211A48FBF75EFE98ED6E
:1048A000000AB5EEC00AF1EE10FA01D288ED009AC6
:1048B00099ED000AB5EEC00AF1EE10FA01D289EDC9
:1048C000009A9AED000AB5EEC00AF1EE10FA01D294
:1048D0008AED009A0020BDEC048BBDE8F08794EDD2
:1048E000020A1B48D0E7000000440040F20100200B
:1048F000300200203102002032020020640000203B
:104900000000C842C4070020B4010020400200207B
:104910000000000044020020F0010020F10100200E
:104920003302002000000000000024403802002074
:10493000E8010020EC010020E0010020E40100205B
:10494000D8010020DC010020980000209C000020FD
:10495000A00000200A0A01219140C943018070474C
:104960000029818902D041F4005101E021F4005175
:1049700081817047224910B5884206D1012110205B
:10498000FEF7D4FF0021102020E01E49884202D10A
:1049900001214C0429E01C49884202D101218C04E8
:1049A00023E01A49884202D10121CC041DE01849B4
:1049B000884202D101210C0517E01649884209D12D
:1049C00001212020FEF7B2FF00212020BDE8104089
:1049D000FEF7ACBF1049884202D101218C0704E0E8
:1049E0000E4988420AD1012144052046FEF786FF80
:1049F0002046BDE810400021FEF780BF10BD00003A
:104A0000001001400044004000480040004C0040BD
:104A1000005000400014014000780040007C00403D
:104A200070B501F01F0501260024C1F3421306FAF8
:104A300005F2012B0FD0022B0FD0838A4FEA1121F0
:104A40000088134206FA01F600EA060001D000B120
:104A50000124204670BD8389F0E7038AEEE710B594
:104A6000C1F3421301F01F040121A140012B07D023
:104A7000022B07D01430002A026805D00A4304E054
:104A80000C30F8E71030F6E78A43026010BD0000F2
:104A90007FB50446008A0D46C98820F44050014382
:104AA0002182A08941F20C618843A9882A89114397
:104AB0006A8902431143A181A08A20F44071A88928
:104AC0000843A0826846FEF73DFF1A48844202D0A0
:104AD0001948844201D1039800E00298A189090491
:104AE00000EBC00101EB0010296801D5490000E08E
:104AF0008900B0FBF1F06422B0FBF2F109010B096F
:104B00006FF018056B4300EB8300A3891D044FF081
:104B1000320306D503EBC000B0FBF2F000F0070053
:104B200005E003EB0010B0FBF2F000F00F000843CB
:104B300020817FBD00100140001401408088C0F337
:104B400008007047FEE703B401984100009850EA5E
:104B5000C12018BF04204A0D18BF40F0010040F2E8
:104B6000FF72B2EB515F08BF40F00200012808BF9E
:104B7000052002B0704700002DE9F04D2DED040B2B
:104B80002DED0C8B96B0DDE92350259CDDF888A037
:104B900025F0004624F00048BAF1000F14BF0121AF
:104BA000002101EB4502FE4953184A1093422AD3D3
:104BB000002814BF0123002303EB44030B44F949ED
:104BC0008B4220D358EA00019FEDF78B6FD0DFF8BE
:104BD000E0B35D4503D1BAF1000F05D187E0BAF12A
:104BE000000F08BF002100D0012101EB450111F5A4
:104BF000001F08D8002814BF0121002101EB440147
:104C000011F5001F0BD99DED241B9DED220B16B055
:104C1000BDEC0C8B04B0BDE8F04D01F0ABBA002741
:104C2000002DBCBFE349884521DAE3498845A8BF88
:104C300002271CDAC3451ADCE04901EB285114298C
:104C400008DDC1F1340220FA02F101FA02F28242D7
:104C50000DD108E058B9C1F1140228FA02F101FAA5
:104C600002F2424503D101F00101C1F1020756EA07
:104C70000A011DD1002C1BDA002D18BF022F01D014
:104C8000012F0AD00220FBF7BAFC16B0BDEC0C8B4A
:104C900004B0BDE8F04D01F04BBA0220FBF7AFFCC9
:104CA00001F046FA51EC100B04F0F8FB83E01EE033
:104CB0009FEDC39B9FEDC4AB002872D1BD488045DA
:104CC0002DD105F1804010F5801008BFBAF1000F1A
:104CD0000DD0B34515DC002CA1BF9DED240B16B003
:104CE000BDEC0C8B04B0A8BFBDE8F08D12E0B0EEB7
:104CF000480AF0EE680A16B0BDEC0C8B04B0BDE8B3
:104D0000F08D002C06DA9DED240B51EC100B04F015
:104D1000C5FB50E0AE48784490ED000BEBE7D8457A
:104D20004FD1002C4ADA2EB186423BD1BAF1000FA6
:104D300044D126E0BAF1000F13D00220FBF75FFC4C
:104D400001F032FA8DED020B9DED220B8DED000B83
:104D500010EE900A039961F31E0003909DED020B83
:104D6000C9E78DED029B9DED220B19EE901A10EE16
:104D7000900A8DED000B61F31E0003909DED020B78
:104D8000B9E78DED02AB9DED220B1AEE901A10EEF5
:104D9000900A8DED000B61F31E0003909DED020B58
:104DA000A9E729E00ADA9DED220B51EC180B53EC30
:104DB000102B04F06DFC41EC100B9CE79DED220BD9
:104DC00099E7864218DAB4F1804F0DD0A4F1005073
:104DD000B0F1FF5010D1002D0EDB9DED220B51ECF8
:104DE000100B02F0F3FFE6E79DED220B53EC102BC6
:104DF00051EC100B00F0AEBC9DED220B51EC100BF2
:104E000001F074FCBAF1000FCDE90C0134D19FED33
:104E1000720BDEB1A6F1E040B0F17F602CD1002D25
:104E200001DD002C0DDA002D01DD002C1FDB002D33
:104E300016DA002C14DB012F08BF9FED690B3FF43D
:104E40005AAFB0EE490AF0EE690A54E7022F18BFD4
:104E5000002D0CD0012F0AD1002DFFF64CAF06E03B
:104E6000002DB8BF002C07DA012F3FF444AFB0EE9D
:104E70004A0AF0EE6A0A3EE7012000EBE57A5AEAB8
:104E800007000CD05848002580457CDD574958481C
:104E9000884514DDB0420DDB002C19DB2BE001202E
:104EA000FBF7ADFB16B0BDEC0C8B04B0BDE8F04DCC
:104EB00001F06AB9B34502DC002C09DC1BE0864234
:104EC00002DA002C17DA03E05E4527DD002C12DD44
:104ED0000220FBF794FB01F067F910EE901A19EE2F
:104EE000900A8DED020B8DED009B61F31E00039087
:104EF0009DED020BFFE60220FBF781FB01F064F958
:104F000010EE901A18EE900A8DED020B8DED008BCD
:104F100061F31E0003909DED020BECE69DED220B6C
:104F200053EC182B51EC100B04F0ACFF9FED320B3F
:104F3000CDE90A0153EC102B9DED0A0B51EC100B3F
:104F400004F094FD9FED2E1B53EC112B04F0C2FED8
:104F50009DED0A1B53EC112B04F088FD9FED2A1BDD
:104F600053EC112B04F0B6FE9DED0A0B41EC190B2E
:104F700053EC102B51EC100B04F078FD53EC192B73
:104F800004F074FD00E07EE09FED210B41EC1A0B74
:104F900053EC102B9DED0A0B51EC100B3CE0000084
:104FA000FFFF1F00FFFF0F00000000000000F03FA8
:104FB0000000F03F0000F07F0000404301FCFFFFD5
:104FC000000000000000F07F000000000000000072
:104FD000566A000000000000000000000000008091
:104FE000000000000000F0FF0000E0410000F0437E
:104FF000FFFFEF3F00000000000000000000D03F76
:10500000555555555555D53F000000000000E03F6F
:10501000000000604715F73F04F028FD41EC190B34
:105020009FEDFD0B51EC1A0B53EC102B04F01EFD01
:1050300041EC1A0B9FEDFA0B53EC102B9DED0A0B74
:1050400051EC100B04F012FD53EC1A2B04F01AFF74
:1050500041EC1A0B51EC190B53EC1A2B04F05CFACF
:105060000690CDE906519DED060B53EC192B51EC42
:10507000100B04F007FF53EC1A2B04F02BFE41EC4D
:10508000100B00F09FB90020B6F5801F0EDA9FEDDF
:10509000E60B53EC102B9DED0C0B51EC100B04F0B8
:1050A000E5FCCDE90C016FF034000E4600EB265014
:1050B000A0F2FF38C6F31300DD4940F07F6646F0EA
:1050C00040568842D8BF002409DDDA498142C8BF72
:1050D000012404DC0024A6F5801608F10108D64856
:1050E000784400EBC4000D9690ED00BB9DED0C0BD9
:1050F00053EC1B2B51EC100B04F0C4FE9DED0C0B7C
:1051000041EC1A0B53EC1B2B51EC100B04F004FA7E
:1051100041EC100B51EC180B53EC102B04F0B8FAC7
:1051200041EC1C0B51EC1A0B53EC1C2B04F09EFCB5
:1051300041EC190BC1488DED109B7844109590ED12
:10514000000B4FF0005040EA660000EB84408DED0C
:105150000A0B00F500200B909DED0A0B53EC1B2B66
:1051600051EC100B04F08EFE9DED0C1B53EC112B3B
:1051700004F0B0FD41EC100B53EC102B9DED100B27
:1051800051EC100B04F072FC9DED0A0B41EC1B0B73
:1051900053EC102B9DED100B51EC100B04F066FC42
:1051A00053EC1A2B04F096FD53EC1B2B04F06AFE13
:1051B00053EC1C2B04F05AFC41EC1B0B53EC192B49
:1051C00051EC190B04F052FC41EC1A0B9C480621DF
:1051D000B0EE4A0AF0EE6A0A784400F085FDB0EEBF
:1051E00040CAF0EE60CA53EC1A2B51EC1A0B04F0D3
:1051F0003DFC53EC1C2B04F039FC9DED100B41ECF5
:105200001A0B53EC192B51EC100B04F085F953ECED
:105210001B2B04F02BFC53EC1A2B04F07DF99DEDB5
:10522000100B41EC1A0B53EC102B51EC100B04F04B
:105230001DFC41EC1C0B9FED84DB53EC1D2B04F09B
:105240006BF953EC1A2B04F067F90A90CDE90A5177
:105250009DED0A0B53EC1D2B51EC100B04F012FECC
:1052600053EC1C2B04F00EFE53EC1A2B04F032FD11
:105270009DED0A0B41EC1C0B53EC102B9DED100B1C
:1052800051EC100B04F0F2FB41EC1A0B53EC192B10
:1052900051EC1C0B04F0EAFB9DED0A0B41EC190BE1
:1052A00053EC102B51EC1B0B04F0E0FB53EC192BCF
:1052B00004F032F941EC190B51EC1A0B53EC192B99
:1052C00004F02AF91090CDE910519DED100B53EC2C
:1052D0001A2B51EC100B04F0D5FD53EC192B04F0F4
:1052E000F9FC41EC190B9FED5A0B53EC102B9DED83
:1052F000100B51EC100B04F0B9FB41EC1A0B9FEDB5
:10530000560B51EC190B53EC102B04F0AFFB41EC96
:10531000190B9FED530B53EC102B9DED100B51EC23
:10532000100B04F0A3FB53EC192B04F0F5F841EC3F
:10533000100B4D48784400EBC40090ED001B51EC7D
:10534000100B53EC112B04F0E7F841EC190B40461D
:1053500004F025FBCDE90A0153EC192B51EC1A0B93
:1053600004F0DAF841EC100B4048784400EBC4003C
:1053700090ED00BB51EC100B53EC1B2B04F0CCF860
:105380009DED0A1B53EC112B04F0C6F80690CDE9F5
:1053900006519DED0A0B53EC102B9DED060B51ECC5
:1053A000100B04F06FFD53EC1B2B04F06BFD53EC62
:1053B0001A2B04F067FD53EC192B04F08BFC41EC25
:1053C000100B00BF781EB0EE48AAF0EE68AA5AEAA9
:1053D000000008BF9FED268B9DED241B53EC102B86
:1053E0008DED001B00959DED240B51EC100B04F08E
:1053F0003DFB9DED000B41EC190B53EC102B9DED8B
:10540000240B51EC100B04F03DFD9DED061B53ECFD
:10541000112B04F02BFB2FE0FE822B654715F73F85
:1054200044DF5DF80BAE543E000000000000404336
:105430008E9803007AB60B00046600003266000006
:105440003C65000000000000000000000000084073
:10545000000000E009C7EE3FFD033ADC09C7EE3F5C
:10546000F5015B14E02F3EBED06300008A630000AC
:10547000000000000000F0BF53EC192B04F04CF8C2
:105480009DED060B41EC190B53EC102B9DED000B21
:1054900051EC100B04F0EAFACDE910019DED100B70
:1054A00051EC190B53EC102B04F036F8CDE9020146
:1054B0000C46AB498C422FDB611A084318D19DED95
:1054C000100B53EC102B9DED020B51EC100B04F064
:1054D000D9FC41EC1B0B9FEDA40B51EC190B53ECC9
:1054E000102B04F019F853EC1B2B04F0BDFB2DD24C
:1054F0000220FBF784F800F057FE10EE901A18EE29
:10550000900A8DED020B8DED008B61F31E00039070
:105510009DED020BFFF7EFBB954A24F0004191424D
:1055200014D39449214408437FF4E5AC9DED100B5E
:1055300053EC102B9DED020B51EC100B04F0A2FC70
:1055400053EC192B04F090FB7FF6D5AC24F000400F
:1055500089498A4A002601EB205182422BDA481CF5
:105560004FF4801121FA00F02044854AC0F30A511B
:105570007A44A1F2FF3192ED000B824A8DED0A0BC5
:10558000CA4020EA0202C0F3130040F48010C1F1C7
:10559000140120FA01F60B92002CB8BF76429DED63
:1055A0000A0B53EC102B9DED100B51EC100B04F07B
:1055B00069FCCDE910019DED100B51EC190B53EC7A
:1055C000102B03F0A9FF9FED700B0A90CDE90A5153
:1055D00053EC102B9DED0A0B51EC100B04F046FA26
:1055E00041EC1B0B9FED6A0B53EC102B9DED0A0B4E
:1055F00051EC100B04F03AFA9DED100B41EC1C0B32
:1056000053EC102B9DED0A0B51EC100B04F03AFCFF
:1056100053EC192B04F05EFB9FED5F1B53EC112B39
:1056200004F024FA53EC1C2B03F076FF41EC190B29
:1056300051EC1B0B53EC192B03F06EFFCDE902016B
:105640009DED020B53EC1B2B51EC100B04F01AFCDC
:1056500053EC192B04F03EFB9DED020B41EC190BB2
:1056600053EC102B51EC100B04F000FACDE90A01B9
:105670004B489DED0A0B0521784400F035FB9DED6C
:105680000A1B51EC100B53EC112B04F0EFF99DEDBC
:10569000021B53EC112B04F01DFBCDE906019DED1F
:1056A000020B53EC192B51EC100B04F0DFF953EC07
:1056B000192B03F031FF9FED3C0B41EC190B53EC20
:1056C000102B9DED060B51EC100B04F0DBFB9DED58
:1056D000060B41EC1B0B53EC102B9DED020B51EC18
:1056E000100B04F0C3F953EC1B2B03F0D1FF53EC68
:1056F000192B04F0C7FB9DED021B53EC112B04F09A
:10570000C1FB53EC1A2B04F0E5FACDE9020101EBE1
:10571000065001150029C8BF039015DC9DED020B52
:10572000324651EC100B04F044FDFFF70CFA04284C
:1057300008BF00F049FD32469DED020B51EC100B05
:1057400004F037FDCDE902019DED020B51EC180B81
:1057500053EC102B04F08AF9FFF72DBB000000007A
:105760000000904000000000FE822B654715973C2A
:1057700000CC904000346F3F01FCFFFF0000E03F91
:10578000FC610000FFFF0F0000000000432EE63F19
:10579000396CA80C615C20BEEF39FAFE422EE63F60
:1057A000CC6000000000000000000000000000408D
:1057B00000B52DED048BB0EE409AF0EE609A83B008
:1057C00051EC190B04F092FA41EC180B18EE100A88
:1057D00018EE901A8DED008B002818BF01200843A9
:1057E00020F00040C0F17F6000F1E040C00F14D015
:1057F00019EE101A19EE900A8DED009B002918BFC2
:105800000121084320F00040C0F17F6000F1E0403A
:10581000C00F04BF0120FAF7F2FEB0EE480A03B051
:10582000F0EE680ABDEC048B00BD00000000000033
:1058300010B51D499FED1A1B2DED020B84B0059884
:1058400020F000408842DCBF01209DED040B21DDEB
:105850001649884209D1049840B94FF00100FAF77F
:10586000CEFE00F091FC06B010BD05DB9DED040BF3
:1058700000F076FC06B010BD68469DED040B00F00C
:1058800017F800F001000121A1EB40009DED021B83
:105890009DED000B00F0A4FA06B010BD0000000062
:1058A0000000000000000000FB21E93F0000F07F45
:1058B0002DE9F14F04462DED020B2DED088B8AB03A
:1058C0009FEDE70B80ED020B139EE74826F00045A5
:1058D00085420ADC9DED120B002084ED000B0AB01E
:1058E000BDEC088B03B0BDE8F08FE0489FEDE0AB66
:1058F0009FEDE1BBA84247DDE14F9FEDE39B9FEDAC
:10590000E48B9DED120B53EC1A2B51EC100B002E77
:105910001CDD04F0B7FA41EC100BBD4208D053EC8B
:105920001B2B51EC100B04F0ADFAC4E900010BE0A5
:1059300053EC192B51EC100B04F0A4FA53EC182B78
:1059400004F0A0FAC4E900010120C8E703F0E4FD77
:1059500041EC100BBD4208D053EC1B2B51EC100B4B
:1059600003F0DAFDC4E900010BE053EC192B51EC14
:10597000100B03F0D1FD53EC182B03F0CDFDC4E95F
:1059800000014FF0FF30AAE7C348A84279DB9DED44
:10599000120B51EC100B00F0A9FE41EC180B9FED1F
:1059A000C00B53EC102B04F061F89FEDBF1B53ECC0
:1059B000112B03F0B1FD03F0C3FF074603F0EFFF27
:1059C00041EC190B53EC1A2B04F050F853EC182B44
:1059D00004F080F941EC180B53EC1B2B51EC190B24
:1059E00004F044F8DFF8C8A241EC100B4FEA155858
:1059F0000125FA4453EC102B51EC180B04F042FA39
:105A0000032DC4E900013DD0C1F30A5005EB451157
:105A1000A8EB00001139814234DA0AEB051BB0EE25
:105A200048AA9BED000BF0EE68AA53EC102B51EC4A
:105A3000190B04F01BF841EC1B0B51EC1A0B53EC47
:105A40001B2B04F01FFA41EC180B51EC1A0B53EC12
:105A5000182B04F017FA53EC1B2B04F013FA9BEDF0
:105A6000020B41EC1A0B53EC102B51EC190B03F009
:105A7000FDFF53EC1A2B04F005FA41EC100B6D1CE2
:105A8000B8E70EE0002EA8BF3846BFF628AF94ED69
:105A9000000B51EC100B03F001FDC4E9000178424A
:105AA0001DE7C6F3130040F4801EC6F30A50A0F2AF
:105AB000F530471100F01F05C5F12000DDF848B0B2
:105AC00008900020069007900520EC467949002DAB
:105AD00007EB0002794408BF51F8221009D051F8B1
